:020000040000FA
:10000000B02D0020F90200000103000003030000EE
:1000100005030000070300000903000000000000C2
:100020000000000000000000000000000B030000C2
:100030000D030000000000000F030000110300008A
:100040003D060000ED060000B90A000013030000A1
:100050001303000013030000FD030000130300005E
:100060001303000013030000130300001303000038
:100070001303000013030000130300001303000028
:100080001303000049070000950600001303000059
:100090006D070000130300001303000013030000AA
:1000A00013030000130300008D0A00001303000077
:1000B0001303000013030000000000000000000014
:1000C00013030000130300001303000013030000D8
:1000D00013030000130300001303000000000000DE
:1000E0000000000000000000000000000000000010
:1000F0000000000000000000000000000000000000
:1001000000000000000000000000000000000000EF
:1001100000000000000000000000000000000000DF
:1001200000000000000000000000000000000000CF
:1001300000000000000000000000000000000000BF
:1001400000000000000000000000000000000000AF
:10015000000000000000000000000000000000009F
:10016000000000000000000000000000000000008F
:10017000000000000000000000000000000000007F
:10018000000000000000000000000000000000006F
:10019000000000000000000000000000000000005F
:1001A000000000000000000000000000000000004F
:1001B000000000000000000000000000000000003F
:1001C000000000000000000000000000000000002F
:1001D000000000000000000000000000000000001F
:1001E000000000000000000000000000000000000F
:1001F00000000000000000000000000000000000FF
:10020000DFF80CD000F0CAF8004800470D170000D6
:10021000B02D002030B4044654E8000F0D4644E8E9
:100220000053002BF8D1156030BC704730B4044641
:1002300054E8000F40EA010544E80053002BF7D1D1
:10024000156030BC704730B4044654E8000F00EA33
:10025000010544E80053002BF7D1156030BC70470E
:1002600030B4044654E8000F80EA010544E8005326
:10027000002BF7D1156030BC704730B4044654E809
:10028000000F00EB010544E80053002BF7D1156087
:1002900030BC704730B4044654E8000FA0EB0105B1
:1002A00044E80053002BF7D1156030BC704770B4A0
:1002B00004464FF0000054E8006F0D68AE4207BFDF
:1002C00044E80023012044E800630E60002B1CBFBB
:1002D0000020F0E770BC704730B4044654E8000FCB
:1002E00088422CBF451A054644E80053002BF5D13F
:1002F000156030BC7047000006488047064800473C
:10030000FEE7FEE7FEE7FEE7FEE7FEE7FEE7FEE7C5
:10031000FEE7FEE77107000001020000202A04DB6F
:10032000203A00FA02F1002070479140C2F1200308
:1003300020FA03F3194390407047000000487047CB
:10034000383D000040EA01039B0703D009E008C9DB
:10035000121F08C0042AFAD203E011F8013B00F88A
:10036000013B521EF9D27047D2B201E000F8012BD6
:10037000491EFBD270470022F6E710B513460A4625
:1003800004461946FFF7F0FF204610BD421C10F846
:10039000011B0029FBD1801A70470000064C074D55
:1003A00006E0E06840F0010394E807009847103445
:1003B000AC42F6D3FFF728FFE83D0000083E0000FE
:1003C00030B58C1810F8012B12F00F0301D110F882
:1003D000013B120906D110F8012B03E010F8015B74
:1003E00001F8015B5B1EF9D101E001F8013B521EEF
:1003F000FBD1A142E6D3002030BD00002DE9F0473B
:1004000000268AB0DFF85091B0464FF48075012481
:1004100037460696284601F0B9FE38B1D9F80403EC
:10042000204203D0284601F0A7FE26432D1D64007C
:100430007F1CADB2082FEDD34FF4BE74204601F0FF
:10044000A5FE48B1204601F097FE46F0004606AAF8
:100450000121002001F07CFE404D16F0FF0F15D069
:100460000127002437420DD009EB8401D1F8100593
:10047000D1F81015C0F3042055F82420C1F3014130
:1004800002B190477F00641C082CEBD3002E5FDA8A
:100490004FF0FF30CDF8108054E0281910F8507F4D
:1004A00090F9000027F0C008401C3BD007A9404647
:1004B00001F004FA10B34FEA9719404600F014FE19
:1004C00055F820701FB1B9F1030F03D006E0B9F160
:1004D000030F27D104A9404601F0F8F94FF0A041DD
:1004E00001EB8800D0F8000706A9C0F3014A404696
:1004F00001F0E4F918B1BAF1020F03D012E0BAF139
:10050000030F0FD1B9F1030F08D1BAF1020F1DD0BB
:100510000221404601F00AFE761CF6B217B14946A8
:100520004046B847641C042CB7D3002E10D06A464E
:100530000121002001F00CFE06990098884207D0A6
:1005400006900498002634460790A6E70321E0E7CA
:100550000AB0BDE8F0870000006000408C03002076
:1005600000F01F02012191404009800000F1E020CD
:10057000C0F88012704700F01F020121914040092D
:10058000800000F1E020C0F88012704700F01F02E8
:10059000012191404009800000F1E020C0F8801165
:1005A000704700F01F02012191404009800000F1D6
:1005B000E020C0F80011704700F01F0201219140B7
:1005C0004009800000F1E020C0F80011704700F001
:1005D0001F02012191404009800000F1E020C0F895
:1005E0000012704700F01F02012191404009800075
:1005F00000F1E020C0F8001270474907090E0028FA
:1006000006DA00F00F0000F1E02080F8141D7047BA
:1006100000F1E02080F8001470474907090E002817
:1006200006DA00F00F0000F1E02080F8141D70479A
:1006300000F1E02080F800147047000070B54FF41E
:100640008076304601F04CF9114CB50560B130466A
:1006500001F04DF90120C5F80803607920B90120A7
:1006600060712168002088474FF48276304601F09F
:1006700037F900280AD0304601F039F90220C5F8D0
:1006800008032168BDE870400120084770BD0000E4
:10069000080000207CB5144C606A01902078002886
:1006A00021D00120FFF772FF6568002666600120F7
:1006B000FFF782FFE169002915D0E80703D08DF824
:1006C000006068468847A80705D501208DF800001E
:1006D000E16968468847680705D502208DF8000063
:1006E000E169684688477CBDE000002070B5144C85
:1006F000D4F80001002628B1D4F80403C00701D0C3
:10070000C4F80061D4F80C010E4D40B1D4F80403D4
:10071000000704D5C4F80C61286900B18047D4F8FB
:10072000100100280BD0D4F80403C00607D5C4F884
:100730001061E868002802D0BDE87040004770BD35
:1007400000100040E000002007480021C0F84011E0
:10075000C0F84411C0F84811C0F84C11C0F800119D
:10076000C0F8041102F05CBF0010014002F0AABE04
:10077000F0B5B5480023021D0178101D01254FF08A
:10078000805406290BD11678360708D10678C6F3AF
:100790000316032E06D0042E04D0052E02D00629FF
:1007A00007D00EE0B4F82463A84FC6F304263E60D9
:1007B00002E01678360704D10678C6F30316032E36
:1007C00002D0062904D00FE0A24FA14E7E670EE0B2
:1007D0001678360708D10678C6F30316032E06D01E
:1007E000042E04D0052E02D0062907D00EE0D4F83E
:1007F0004462994FC6F342363E6002E016783607EF
:1008000004D10678C6F30316032E02D0062906D0BB
:1008100011E0924E376827F0807737600EE0167847
:10082000360708D10678C6F30316032E06D0042E29
:1008300004D0052E02D006290AD011E04FF08046E0
:10084000C6F80C31C6F81031834E361F336002E013
:100850001678360704D10678C6F30316032E02D0A5
:10086000062905D00CE07C4F032664373E600AE081
:100870001678360704D10678C6F30316032E02D085
:1008800006290DD014E0764F05263E60744E78366A
:100890003560734E083633603F263F1D3E6002E0F0
:1008A0001678360704D10678C6F30316052E02D053
:1008B000062957D062E06B4E36686B4F3E60694E3A
:1008C000361D36683F1D3E60664E083636683F1D51
:1008D0003E60644E0C3636683F1D3E60614E1036F9
:1008E00036683F1D3E605F4E143636683F1D3E60E1
:1008F0005C4E183636685C4F20373E60594E1C36C9
:1009000036683F1D3E60574E203636683F1D3E60BC
:10091000544E243636683F1D3E60524E28363668A7
:100920003F1D3E604F4E2C3636683F1D3E604D4E9B
:10093000303636684C4F40373E604A4E3436366863
:100940003F1D3E60474E383636683F1D3E60454E7F
:100950003C3636683F1D3E60424E403636683F1D8D
:100960003E6002E01678360708D10678C6F3031613
:10097000032E06D0042E04D0052E02D0062907D05F
:1009800019E0D4F85812394A01F04F01116002E021
:10099000117809070FD10078C0F30310032803D0A2
:1009A000042801D0052806D131480168C90702D0C2
:1009B0006FF001010160D4F83001062808D1D4F8A5
:1009C0003401062804D12B48016841F4806101609C
:1009D00022487438016841F470010160BFF34F8F01
:1009E000BFF36F8F4FF01021D1F80002002803DB16
:1009F000D1F80402002822DA1F4A15601F48046853
:100A0000002CFCD01524C1F800420568002DFCD054
:100A1000C1F8044201680029FCD013600168002974
:100A2000FCD0BFF34F8F0D48F0380168144A01F431
:100A3000E06111430160BFF34F8F00BFFDE7124932
:100A400010480860F0BD0000E00F00F040350140A4
:100A50000DF0ADBA00C007403C050040FCED00E0E1
:100A6000105600400404001020C50040E40E004071
:100A7000000400403C17004004E5014000E4014050
:100A80000400FA050090D003280100200748D0F8A0
:100A90004011002909D00021C0F8401104484078D5
:100AA000032802D1034901200861704700A00140DA
:100AB000E0000020001000400148006800470000EE
:100AC0001C00002002E008C8121F08C1002AFAD149
:100AD00070477047002001E001C1121F002AFBD1BE
:100AE0007047006890FAA0F000BA00BA70470000A2
:100AF00070B50024064D06E06868012110F8340046
:100B000001F078FE641C28788442F5D3002070BD83
:100B100028000020F8B515000C46064603D001F069
:100B200065FF10B105E00720F8BD01F027FF0028A0
:100B3000FAD1124900224E600C708D60C1E9042286
:100B4000C1E906220E4D0DE006EBC40029680091B4
:100B500081788DF8011000780A4A694601F09CFE00
:100B60000028E1D1641EE4B2EED2BDE8F8400448AA
:100B70000021054A001D00F075B800002800002083
:100B8000643C00002D130000B111000072B601F0AA
:100B90002FFD00BF01F0A2FB0028FBD11148124934
:100BA000401AC408012000EB044010A101F0AEFC83
:100BB00011480068C00700D000BE022000EB0440CE
:100BC0000EA101F0A3FCBFF34F8F0B48E43801687E
:100BD0000E4A01F4E06111430160BFF34F8F00BF83
:100BE000FDE70000483E0000183E000046617461C9
:100BF0006C206572726F7200F0ED00E053797374CF
:100C0000656D207265736574000000000400FA05CC
:100C10000EB500210091CDE901106A4644F20100B1
:100C2000FFF7B4FF0EBD000070B5002411B18A07B4
:100C3000254601D0072070BD094A0B46516010704F
:100C400000EB40005570C10018469560FFF793FB1C
:100C500001F0CCFE10B901F091FE0446204670BDB3
:100C600060000020084B9B7823B12AB120B10068B6
:100C7000037C1BB1082070470720704700230374D2
:100C800041744261184670475804002070B502F064
:100C90008FFA104800240B21047044700E4D8170AF
:100CA00014206C602C706C70FFF75AFC0621142025
:100CB000FFF7A3FC1420FFF774FC0848046006212A
:100CC0001120FFF79AFC0548001F0068A86000206B
:100CD00070BD0000580400204800002008150140A5
:100CE0002DE9F843DFF8709099F8023053B348B318
:100CF00031B3436933B3437C012B25D0002704462D
:100D0000002588461646284600F03AF8684602F064
:100D100063FFD8B101210170104944600968C0E93E
:100D20000218C0E904769DF8000089F8010000204F
:100D300000F028F81420FFF74AFC2846BDE8F883A5
:100D40000720FBE70820F9E70F46D8E70425002035
:100D500000F018F8F1E700005804002004150140E5
:100D60000649897839B130B1416921B10021017456
:100D7000022102F035BC0820704700005804002012
:100D800000F002B800F008B872B602480168491CC9
:100D9000016070475C00002003490868401E08603D
:100DA00000D162B6704700005C000020F0B54FF043
:100DB0008050D0F80411C1F307222949422A0AD1F0
:100DC000284A136823F0010313600A6822F0010225
:100DD00042F080720A60D0F80401C0F30720452871
:100DE0003AD12148407C052838D04FF07F431F4836
:100DF00000681E4A1840121D12681A4090422BD1FA
:100E00001A4A083210681368C0B2C3F3072C13687B
:100E10001268C3F30747160E144A0C321368DDB28A
:100E20001368C3F3072413681268C3F30743120E51
:100E300060450BD0B84209D0B04207D0A84205D0D7
:100E4000A04203D0984201D0904205D1086820F01A
:100E5000010040F0807008600020F0BD044BC6E740
:100E60007417004050160040140100201C1500406B
:100E70000000FFFF2DE9F041064608680C46411CC2
:100E80004FF0A0474FF0010506D005FA00F1C7F872
:100E90000815206801F036F96068411C02D0002175
:100EA00001F01EF93168A069C1F82405607D227D3A
:100EB00031681043C1F86C05D4E900123068C0F8FD
:100EC0001425C0F80C15207D012815D1A068411CFF
:100ED00002D0002101F004F9E068411C05D08540F2
:100EE000C7F80855E06801F00DF9D4E9021230683E
:100EF000C0F80825C0F81015BDE8F0812DE9F041D3
:100F0000064608680C46411C4FF0A0474FF001050B
:100F100006D005FA00F1C7F80815206801F0FCF8C2
:100F20006068411C02D0002101F0E3F83168A0693B
:100F3000C1F82405607D217D32680843C2F86C0544
:100F4000D4E900123068C0F80C15C0F81425207DD3
:100F5000012815D1A068411C02D0002101F0C9F878
:100F6000E068411C05D08540C7F80855E06801F0ED
:100F7000D3F8D4E902123068C0F80825C0F810157B
:100F8000BDE8F0812DE9F0470546861C90460F46E6
:100F90004FF001090020FFF7F3FE1B4C206838607A
:100FA000D4E90001401AA16804F21C47081A0EE0B7
:100FB0000121384600F032FC00F05AFB0146384669
:100FC00000F02CFCD4E90001401AA168081A401C6A
:100FD0008642EDD8B8F1000F03D0052065F38910E3
:100FE00002E0062065F39F50A2682168114004EBDF
:100FF0008101C8602068304420600020FFF7C2FEF5
:101000004846BDE8F08700006406002030B48268DE
:101010000468531C8360A154D0E901128A4202D3B0
:1010200030BC00F01CBF30BC70470000034803C850
:10103000814201D1012070470020704764060020E2
:1010400010B50C4B01290AD0002911D103280FD16A
:1010500000F052F81868BDE81040FFF781BE032881
:1010600006D118680022BDE810402121FFF738BEE4
:1010700010BD0000103C0000006890FAA0F000BA1B
:101080007047000005494FF0FF32082841F8202042
:1010900002D3084480F84820704700008C030020E9
:1010A000F0B54FF0FF3512B10023082601E0082308
:1010B0000C260C4C05E000BF54F823707F1C04D0B4
:1010C0005B1CB342F8D32846F0BD26185DB286F803
:1010D000305044F82310002AF5D1E11881F8480077
:1010E000F1E700008C0300200249084490F9300029
:1010F000704700008C030020012188074160816057
:10110000704700002DE9F05F26484168F1B3DFF831
:1011100098B00E688146DBF8004087688078E11B54
:1011200021F07F45ED1CB0B9DFF880804FF48030AE
:10113000C8F84403C8F804031120FFF711FA11207E
:10114000FFF72FFA4FF0010AC8F800A02F2001F096
:1011500049FB89F802A0B54200D23546124BE81986
:101160003C3320F07F401860DBF800105A46091B22
:1011700021F07F41001B20F07F40C91C81420FD924
:10118000106818602F2001F02DFB00E004E0BDE89E
:10119000F05F1120FFF71BBABDE8F05F02F008B85E
:1011A000BDE8F09F480000200415014000100140F8
:1011B0002DE9F0470025DFF88C803CE060680021D5
:1011C00000EBC506012032789146FFF7A7F8D4E975
:1011D000062300EA020701EA030C57EA0C0728D0AD
:1011E00082438B434846C4E9062301F0BDFB3278B5
:1011F0008246914601200021FFF790F8D4E90423AC
:1012000000EA020401EA03074A4650460021FFF7BC
:1012100085F844404F403C430BD17078012801D001
:10122000012100E00021726881EA0A010AB1484602
:1012300090476D1CEDB298F8000044468542BDD33E
:10124000BDE8F0872800002010B50021024800F01A
:10125000F0FA80F3100010BD800A00200E4910B58E
:101260000A784C780023A24212D0521CD2B20A70E3
:10127000022A00D10B70084A0B780C3252F8232056
:1012800002608868104420F07F408860012010BD13
:101290000360002010BD00004800002000B51DA024
:1012A0008BB0006808901CA01CA100680990D1E9CF
:1012B0000001CDE9060118221A496846FFF742F8F5
:1012C0004FF41671ADF80C100120174901918DF8FB
:1012D000000000218DF801108DF808008DF8140031
:1012E000684600F089FB002812D108A800F03AFCFB
:1012F00000280DD109A800F06DFC002808D10821B4
:1013000006A800F0B5FC002802D1322000F0FEFC57
:101310000BB000BDE4E3E2E1C2C2C2C2E5C2C3C495
:10132000C5C6C7C8403C0000AD1900002DE9F0411A
:101330008046024601200021FEF7F0FF1A4F0546C5
:101340000E467868FFF70CFD00280CD1174CD4E945
:10135000062110462A4001EA06031A4305D0A84395
:10136000B143C4E90601BDE8F081404601F0FCFA52
:1013700030B1D4E9040128433143C4E9040105E054
:10138000D4E90410A943B043C4E90410D4E9060128
:1013900028433143C4E90601A1687868BDE8F041FB
:1013A0000022FFF79DBC0000643C000028000020E4
:1013B0004FF080400021C0F800110121C0F800105A
:1013C000D0F800110029FBD0704700002DE9FC5F28
:1013D0000E008346DDE90C47C6F1000098469246B0
:1013E000814600D40846012503E000BF90FBFAF0D7
:1013F0006D1C5045FADAA84500D9454624B1002EA7
:1014000001DB780700D5641EB80702D5B8F1000FDC
:101410000AD0F80708D13CB1A54205D22021584690
:10142000641EFFF7F3FDF6E7002E02DA4E462D218B
:1014300002E0780703D52B215846FFF7E7FD07F0B8
:10144000030002280BD1B8F1000F08D13CB1A5422E
:1014500005D230215846641EFFF7D8FDF6E7CDE9E6
:101460000047434652463146584602F09DFABDE8D1
:10147000FC9F000070B50D46044600684FF488716B
:1014800001F0A9F94FF49071206801F0A4F94FF42C
:101490009271206801F09FF94FF4A271206801F069
:1014A0009AF920681249C0F804132068690740F3CC
:1014B0000730090E002806DA00F00F0000F1E020E6
:1014C00080F8141D03E000F1E02080F8001420688B
:1014D000012140F3073000F01F02914040098000D5
:1014E00000F1E020C0F88012C0F8001170BD0000CB
:1014F00010030200024600201268530713D502F0C1
:101500000300012802D002280CD105E0C2F38310A9
:101510000B68801C184404E00223086803EB925215
:1015200010440860012070474FF080400021C0F84F
:1015300004110121C0F80810D0F804110029FBD0D3
:101540007047000008B500200090FFF731FF084801
:101550005821012200910270417100F01DFC0549E3
:101560004FF448508847BDE80840FFF7C5BD00006C
:1015700064030020213C00002DE9F047394E00278C
:1015800080463D46DFF8E090D6F804A057E003D04F
:101590000446D0F81C8035E099F8002002EB4201A7
:1015A000521CD2B289F8002009EBC10199F802302F
:1015B000091D9A4201D189F8005048680A7804460A
:1015C000012A12D0022A02D0032A3BD108E001F0FE
:1015D000D7FF00B10127257434E00574C06900E02D
:1015E00070680028F9D170602CE0207C50BB8868BE
:1015F0006060C868A0600869E0604869A061F07830
:1016000000B165606268B168184B501A20F07F40E5
:10161000984202D2A168084406E0881AA16820F026
:101620007F40814202D9081A206000E02560656091
:101630000120A56020742046E56101F083FFB8F128
:101640000000A4D199F8001099F801008142A3D1BB
:1016500017B97168514502D00120BDE8F08700201C
:10166000FBE700004800002058040020FFFF7F0037
:101670002DE9FF410026234800F0CDF82148001F46
:10168000074600F0C8F8204C60680090A56800E0AC
:1016900000986946284004EB80000C30FFF72AFFD1
:1016A0000028F5D101AA009901EA050304EB8303A0
:1016B000491CDB6842F82030401C00910228F2D31C
:1016C000019800F0030001280BD0022810D10198E6
:1016D000032101EB90500099BDF80A6001EB9000E6
:1016E00005E00198BDF80A60C0F38310084400903B
:1016F000384600F08DF808B10098606004B03046BC
:10170000BDE8F0817C0A002064060020FFF7BEFAE5
:1017100008B1FFF77DFA0E4A00210E48FFF7A2FA42
:1017200008B1FFF775FAFFF7FFFEFFF7B7FD0A49AB
:101730000120FFF779FA08B1FFF76AFA0122114692
:101740000648FFF7E7F9FFF7D3F930BFFDE70000E0
:1017500045150000103C00004C0300200000002054
:101760002DE9F047C5881E1DB6FBF5F78946B6FB87
:10177000F5F1044605FB176C407916686843DDF8FF
:1017800020A0F718001F874200D9C61A166001E092
:101790002468491E0029FBD1A5EB0C078846B742F7
:1017A00016D818E004EB0C00001D09EB0803BAF191
:1017B000000F3A4602D00146184600E01946FEF7EF
:1017C000C1FD2468F61B4FF0000CB844B54201D9A6
:1017D000374600E02F46002EE4D1BDE8F087000038
:1017E00030B5024651B100F0EBFE0021074C08E095
:1017F00034F821301568AB4202D11160002030BDB1
:10180000491C8142F4D3052030BD000000000000D7
:10181000002100F009B8012100F010B808B56A46AF
:10182000FEF72BFD009808BD08B56A46FEF70BFDD4
:1018300008BD08B56A46FEF7EDFC08BD08B56A4666
:10184000FEF7F4FC009808BD08B56A46FEF722FDD5
:10185000009808BD70B5044600252846FFF790FAA9
:1018600021686268086890420ED9401E08600178BD
:10187000238AE26801FB0325227A2168101AC0B28C
:101880000A79824200D208710020FFF77BFA2846CD
:1018900070BD70B505460C460020FFF771FAE86888
:1018A000298A201AB0FBF1F12A681068431C1360E2
:1018B0000170BDE870400020FFF764BAC20800F074
:1018C00007030120895C98400840704710B5C208A2
:1018D00000F00703885C01249C402043885410BD1D
:1018E00000F180400068002800D00120704708B552
:1018F00000F18040002101600068009008BD0000F8
:10190000F0B505460478154889B0164640F82420FD
:10191000124A0869121DA2F1080742F82400487F04
:10192000385520226846FEF70DFD04942878385C6F
:1019300048B10EB10A4A00E000226946281D01F0B4
:10194000BFF909B0F0BD0EB1064A00E000226946B9
:1019500005F10C0001F086F8F3E700001400002008
:1019600085380000D136000070B50C494FF4705036
:1019700008600B4C00256570257001F00BFC2021E0
:101980000848FEF7F8FCE56212202563FEF7FEFD2D
:1019900005490320C1F80002002070BD08F5014090
:1019A000E00000208C0D00200010004010B50078F1
:1019B000002807D0012805D100F006F8BDE8104046
:1019C00000F0D6B910BD0000094810B5007860B12C
:1019D0000120FEF7DBFD07480021816201624162C0
:1019E0000120FEF7E9FD002010BD082010BD000019
:1019F000E0000020C80B002070B505007ED04B4CE5
:101A0000207818B1FFF7B0FF002878D16868E0614E
:101A1000182229464648FEF795FC002565602021DE
:101A20004448FEF7A8FCE562256302F05BF8002855
:101A300073D041494FF0E7300860091D4FF0433043
:101A40000860091D3D480860091D3D48086001F017
:101A5000A1FB37490020183101F5947200EB800397
:101A600003EB40130B4442F82030401C0828F5DB00
:101A7000344A002002F5947100EB800303EB40131D
:101A8000134441F82030401C0828F5DB2E4904207F
:101A900008602D48083805602C4840F20221C0F843
:101AA00000122C4A2A491160111D08602848001DA7
:101AB000091D086025481030091D0860091D2648C9
:101AC00008602348F038091D08602348001D091DDF
:101AD0000860091D21480860154E707C00F0070160
:101AE0000120FEF79AFDB07C00F007011220FEF7FE
:101AF00094FD1220FEF760FD657002E00BE00BE044
:101B00000BE0012020700007D0F80401C0F307208B
:101B1000452804D008E00E2070BD072070BD104895
:101B2000016841F480610160002070BDE000002088
:101B3000880A00208C0D00201C150040E743C323B9
:101B4000A363E313F40B002010A5004000A00040A5
:101B50000011004060F5014040A10040001000402D
:101B60003C17004070B5184E0446707808B111203B
:101B700070BD44B14FF08050D0F80401C0F307208D
:101B8000422802D012E00E2070BD0F483430407C55
:101B9000052814D04FF07F452046FEF7A2FF2842CB
:101BA00004D10A48006810F0FF0F0AD02068706363
:101BB000012001F053FFBDE87040FFF7F7B8044D76
:101BC000EAE7072070BD0000E00000202415004077
:101BD0000000FFFF70B5234D0446687808B111205E
:101BE00070BD44B14FF08050D0F80401C0F307201D
:101BF000422802D029E00E2070BD1A483430407CC3
:101C000005282BD04FF07F462046FEF76AFF304272
:101C10001BD11549086810F47F4F21D0086810F4D3
:101C20007F0F1DD00868000E1AD0091D0868000E2D
:101C300016D0086810F47F0F12D0086810F47F4F98
:101C40000ED0086810F0FF0F0AD02068A8630220A9
:101C500001F004FFBDE87040FFF7A8B8034ED3E7DA
:101C6000072070BDE0000020241500400000FFFFA9
:101C700070B50C462249497809B1112070BD60B198
:101C8000082C3AD84FF08051D1F804111C4DC1F303
:101C900007213435422902D01CE00E2070BD697C3A
:101CA00005290FD04FF07F412CB1164A12680A4225
:101CB00001D102780AB3134A121D12680A4209D1EF
:101CC000012105E01049EFE7425CB2B1491CC9B2FD
:101CD000A142F9D301460A4822463C30FEF732FBC6
:101CE000C4F10801FF202C74C840A874042001F03E
:101CF000B5FEBDE87040FFF759B8072070BD000081
:101D0000E00000201C1500400000FFFF0649497854
:101D100009B111207047642801D907207047024992
:101D20003431C87400207047E00000200E4810B520
:101D30000078A0B10D4CA06A98B10120FEF726FCF6
:101D4000A06A401EA062606A401C6062082801D33D
:101D5000002060620120FEF72FFC002010BD08204B
:101D600010BD4FF4807010BDE0000020C80B0020B3
:101D7000074810B5407808B1112010BD0548806AA9
:101D800018B101F0CFFA002010BD4FF4807010BDE3
:101D9000E0000020C80B00202DE9F041264F054649
:101DA000387840B155B1287868B120280BD8234E37
:101DB000317829B109E00820BDE8F0810E20FBE769
:101DC000F17C884201D90920F6E71D4CA06A082859
:101DD00001D30420F0E76878082801D30720EBE757
:101DE0000120FEF7D3FB206A2522294654F8200063
:101DF000FEF7A8FA10486A782C30815C491C01F083
:101E000003018154206A54F82020401C08281171D5
:101E1000206201D300202062A06A401CA062012041
:101E2000FEF7CAFB707828B9307C18B9787808B901
:101E300001F078FA0020BFE7E0000020880A0020C7
:101E4000C80B00200FB408B50399002904D004AAD8
:101E500000926A4600F00FF801B05DF814FB10B56F
:101E600082680446002A05D0D4E904032168984713
:101E70000020A06010BD2DE9FC4791460C00804673
:101E800076D014F8011B39B125290ED04046FFF752
:101E9000BDF820780028F4D198F80C00002867D00D
:101EA0004046BDE8FC47FFF7DABF00200122217859
:101EB0002B291BD02D2902D0302908D102E040F077
:101EC000010001E040F00200641C002AEFD100256F
:101ED0002A290ED02178A1F130020A2A11D205EB6D
:101EE000850201EB4205641C303DF1E740F004003F
:101EF000EAE7D9F800100B1DC9F800300968641C26
:101F00000D44217800232E290BD114F8011FA1F1D3
:101F100030020A2A05D203EB830201EB4203303B75
:101F2000F3E76C290DD068290BD0692921D00BDC8F
:101F3000252918D0582931D063290ED0642915D10C
:101F400017E014F8011FECE7702969D0732932D02B
:101F500075291BD0782909D120E0D9F80000011D8E
:101F6000C9F8001001784046FFF750F8641C90E76C
:101F70006CE0D9F800100A1DC9F800200968CDE905
:101F800000500A224046FFF721FAEFE7D9F8001087
:101F90000A1DC9F8002009680A2206E0D9F80010D5
:101FA0000A1DC9F8002009681022CDE900504046FA
:101FB00001F0FAFCDAE7D9F8001000270A1DC9F889
:101FC00000200E68C00705D112E04046761C7F1C39
:101FD000FFF71CF831780029F7D104E020214046B2
:101FE0006D1EFFF713F8BD42C0D9002DF6D1BDE735
:101FF0004EB13046FEF7CAF9074604E020214046BC
:102000006D1EFFF703F8BD4206D9002DF6D103E09F
:102010004046761CFEF7FAFF31780029F8D1A5E793
:10202000D9F80000011DC9F80010056830214046AC
:10203000FEF7ECFF78214046FEF7E8FF082000217C
:10204000CDE90001034610222946B0E7BDE8FC8730
:1020500070B541EA4201DDE904564FF0A04441EA7F
:10206000830141EA052104EB800041EA0641C0F802
:10207000001770BD70B541EA4201DDE904564FF02A
:10208000A04441EA830141EA052104EB800041EAD2
:102090000641C0F8001770BD70B541EA4201DDE9A4
:1020A00004564FF0A04441EA830141EA052104EBC4
:1020B000800041EA0641C0F8001770BD1CB5002140
:1020C00000910B4601220191FFF7D4FF1CBD1CB506
:1020D000002100910B4601220191FFF7DDFF1CBD9D
:1020E0001CB500220B46009211460192FFF7C2FF79
:1020F0001CBD1CB500220B46009211460192FFF751
:10210000CBFF1CBD1CB5002100910B4601220191A3
:102110001146FFF7AFFF1CBD1CB5002100910B4617
:10212000012201911146FFF7B7FF1CBD4FF0A042FD
:1021300002EB8000D0F8002722F44032C0F80027DC
:10214000D0F8002742EA0141C0F8001770470000AC
:1021500018B5084B6C4601441B68009306E000BFAD
:1021600054F82030D3F81035401C08C28142F7D80B
:1021700018BD0000583C0000034908B50844002180
:1021800001600068009008BD0060004002494058AE
:10219000012800D00020704700600040F0B595B0E5
:1021A0001C4615460F4608461A9E00F0DBFA182119
:1021B00009A8FEF7E0F80E96CDE90954002308229D
:1021C00003A9384600F0E1FA05980690BDF8100022
:1021D000ADF81C00BDF81200ADF81E0000208DF80F
:1021E00021000398082600F00300012802D00228ED
:1021F00018D032E003983346850AC0F3C2008DF848
:10220000200003980FA9C0F38314A200384600F001
:10221000BCFA09A8009006AB22460FA9284600F098
:10222000FDF91AE00398840DC0F3C2008DF8200078
:10223000082C01D2254600E0082533462A460FA97E
:10224000384600F0A2FA2E44641B09AB06AA2946C0
:102250000FA800F05FF9002CEAD1384600F086FAAA
:1022600015B0F0BD70470000084810B50178084A65
:10227000515C19B1001D00F0AFFD02E00C3000F020
:10228000BDFCBDE81040002001F040BA7400002001
:102290001000002008B5034A00924023024AFFF7CD
:1022A0007DFF08BDE5320000640500200A4A0129CF
:1022B00002EBC00007D0022907D0032907D0042968
:1022C00007D0002070470220704704207047007933
:1022D0007047407970470000183E00002DE9F04734
:1022E0008CB0FEF7A3FE18B100200CB0BDE8F0875B
:1022F0007D4C0020C4F81804BFF34F8F6068029033
:10230000A5684FF00008284004EB80000CE000BFF7
:10231000D4F8180470B921680298814201D861602C
:10232000E2E7284004EB80000C3002A9FFF7E2F856
:102330000028EDD1002003AA029901EA050304EB6D
:102340008303491CDB6842F82030401C02910228BC
:10235000F2D3039800F00300022802D001284DD0E8
:10236000A7E003985022810D8946B2EB905F00D818
:1023700050210E4666F39F50039008315B4800F0F1
:10238000A8F9070078D000F0EDF94346082203A928
:10239000384600F002FA029908F1080A2940681A42
:1023A0008000001D864222D94F4D0C3530B1C2B29B
:1023B00004EB8101301A90460C3104E02946F2B258
:1023C000002590462846C6B25346384600F0E5F947
:1023D0000AEB080325B132462946384600F0DDF9FC
:1023E000029909F1030001EB900002903BE004EB3D
:1023F00081015346324638460C31EFE70398C0F36B
:102400008310062800D30620039960F38911C1F3D5
:102410008310801C03918100344800F05AF90700B2
:1024200047D000F09FF94346082203A9384600F040
:10243000B4F908F1080800260FE00298434600EAC4
:102440000501401C04EB81010290042238460C3146
:1024500000F0A3F908F10408761C0398C0F3831078
:10246000B042EAD847B1D4F81054D4F8180478B17F
:10247000384600F07BF931E01BE0E868407901283C
:1024800004D12A682846394612689047E8680568EA
:10249000002DF2D1384600F069F90020FEF770FCFB
:1024A000D4F8180408B9029860600020FEF76AFCAE
:1024B00014E0D4F8104405E0216820468968884774
:1024C000E0680468002CF7D109480A49401AC0089E
:1024D000022101EB004008A100F018F8FEF7A6FD6C
:1024E00080F0010001E7000064060020503E00007B
:1024F000483E0000183E00004261636B656E6473E5
:1025000020666C75736865640000000000231A463D
:1025100000F092BF2DE9F0470E4680461C469246D9
:1025200008293ED894F80C900020207319461046D4
:1025300000F0D8FD0025B54206D218F805201AA1F2
:102540002046FFF77FFC03E019A12046FFF77AFC45
:102550006D1C082DEFD317A12046FFF773FC002553
:10256000B54210D218F80570FDF7E8FE0068C05DAE
:1025700010F03E0F01D03A4600E02E220EA1204678
:10258000FFF760FC03E00DA12046FFF75BFC6D1C2C
:10259000082DE5D301222146504600F085FD84F840
:1025A0000C90BDE8F0870000202530327800000054
:1025B000202020007C000000256300002000000097
:1025C00002480349401AC00870470000503E00000E
:1025D000183E000013B56846FFF702F908B1002065
:1025E0001CBD0248009950F831001CBD183E000087
:1025F00070B509480125D0F8104480F8205407E050
:10260000E06845712168204649688847E0680468A9
:10261000002CF5D170BD0000640600202DE9FF47B5
:1026200081460C9D00200C462F7B28739846164649
:102630002946184600F056FD072E42D2DFE806F084
:1026400004090F161F2A360049462846FFF7FAFBF1
:1026500037E0494628462268FFF7F4FB31E0D4E929
:10266000002349462846FFF7EDFB2AE0A0680090CA
:10267000D4E9002349462846FFF7E4FB21E0D4E9EA
:102680000201CDE90001D4E9002349462846FFF7BD
:10269000D9FB16E004F1080007C88DE80700D4E96B
:1026A000002349462846FFF7CDFB0AE004F1080065
:1026B0000FC88DE80F00D4E9002349462846FFF7EC
:1026C000C1FB00222946404600F0EEFC2F73BDE816
:1026D000FF872DE9F041058A80462D1F4819C01C4F
:1026E000B0FBF5F0C6B24046FFF7B4F8041E19D0AF
:1026F0000020207101206071E58000272546761EAC
:10270000C4F800800BE04046FFF7A4F860B161799F
:10271000491C6171286005467F1CC0F80080B742E3
:10272000F1D32046BDE8F081204600F002F80020F9
:10273000F8E72DE9F041457901466B1E002201E0E2
:102740000968521C9A42FBD30F680146002605E037
:1027500038460C68FFF79DF82146761CAE42F7D349
:10276000BDE8F0810121001DFFF758B810B50446FF
:102770000121001DFFF768F810F0FF0F04D120467B
:10278000BDE81040FFF7D5BF10BD1CB50192012276
:10279000009201AAFEF7E4FF1CBD1CB501920022C5
:1027A000009201AAFEF7DCFF1CBD4058002800D0B3
:1027B0000120704708B5002242504058009008BDE3
:1027C000D0F80403084000D001207047405800288A
:1027D00000D00120704708B50022425040580090B8
:1027E00008BD0000002802D0014980010847704759
:1027F000713C00002DE9F0418846054600F03CFCA4
:10280000234E002828461AD0FEF76EFC304490F87C
:1028100048008009032802D001280ED007E04FF0BD
:10282000A040D0F81005E84010F0010F05D00321BA
:102830002846BDE8F041FFF779BC0221F8E700F037
:1028400027FC002822D02846FEF74EFC04464FF411
:10285000807000EB84000F4F81B207EB8400D0F84A
:10286000102542F00102C0F810250846FFF784FC4D
:10287000B8F1000F0AD02846FEF736FC56F82000C3
:10288000002803D00120A040C7F80403BDE8F08170
:102890008C030020006000402DE9FC41DFF8BC8083
:1028A000044608EB0400002790F930001346C017D7
:1028B0000E46401C01D008274CE0B0781946C0F302
:1028C00040022046FEF7ECFB0546401C41D0B078A4
:1028D000410719D4C0070AD04FF0A04000EB840193
:1028E000D1F8000720F00200C1F8000707E000213E
:1028F0007378204600910A460191FFF7A9FB17491A
:1029000020465431FEF7E2FFB078800718D514480E
:10291000317800EB8500D0F81025124B1A40C0F832
:1029200010254FF4F8524FF4403302EA042203EA30
:1029300001410A43D0F810150A43C0F8102509E0F8
:1029400008EB0500327810F8481F41EA8211017047
:1029500000E004273846BDE8FC8100008C0300201D
:1029600000600040FFE0FCFF4FF0A041D1F81015DF
:10297000C14011F0010000D00120704770B5184D22
:1029800095F8580008B1082070BD0020411E2A1893
:10299000401CC0B282F830102028F8D30024204612
:1029A000FEF770FB641CE4B20C2CF8D300240D4934
:1029B000C0206C6581F8000401264020891FC1F801
:1029C0008002C1F800014FF4BE70FFF7D5FB064945
:1029D000F007C1F8040385F85860204670BD000078
:1029E0008C03002006E000E000600040034890F8FF
:1029F0005800002800D00120704700008C03002000
:102A00000121B1EB507F01D10120704700207047B8
:102A100070B50D4600F0B2FB04000FD00020FEF7A9
:102A2000AFF9207920B10020FEF7ACF9112070BD7C
:102A30000120256020710020FEF7A4F9002070BD60
:102A400010B500F09BFB002802D00021016001714D
:102A500010BD00000149024800F080BEE8030020DC
:102A6000002000402DE9F0410546007916460F464A
:102A700000EB40012D4A01EBC00102EB810494F808
:102A80002A1011B10820BDE8F081294951F8201021
:102A90002868FFF7BDFF08B11120F4E73946284642
:102AA000FEF7E8F966603869206030004FF00106F3
:102AB0002FD03F7F4FF48E712868FFF77BFE4FF4D5
:102AC000A2712868FFF776FE28681A49C0F8041337
:102AD00028684FEA471140F30730002806DA00F073
:102AE0000F0000F1E02080F8141D03E000F1E02069
:102AF00080F80014286840F3073000F01F0206FA3F
:102B000002F14009800000F1E020C0F88012C0F816
:102B1000001128680421C0F800150020A061E061C0
:102B200084F8290044F8140FA675ACE7E8030020E8
:102B30005C3C0000800002002DE9F047054600796A
:102B40000B4600EB400101EBC000234901EB800480
:102B5000284600F043F810B11120BDE8F0874FF08F
:102B60000008C4F82080A360626184F828804FF4D4
:102B70008E76474631462868FFF71CFE28684FF0DE
:102B80000109C0F808902146286800F083FD6068BC
:102B900000BBD5F800A00EE094F8280008B10F277C
:102BA00016E031465046FFF700FE0028F4D02146DB
:102BB000504600F06FFD216A60698142F1D33146D1
:102BC0002868FFF7F2FD0028F9D02868C0F80C90BB
:102BD000C4F814803846C0E7E8030020007900EB11
:102BE000400101EBC000044901EB8000406900286E
:102BF00000D0012070470000E80300202DE9F047D5
:102C0000044600794FF0000900EB400101EBC000E1
:102C1000254901EB80072068C0F80095786880B1ED
:102C200020682249C0F808132068012140F30730CA
:102C300000F01F0291404009800000F1E020C0F840
:102C400080112068D0F80C25D0F81485D0F80865DC
:102C5000D0F810554FF0FF31C0F81415C0F80C151E
:102C60002068C0F80815C0F81015501C02D0104696
:102C7000FFF724FAB8F1FF3F02D04046FFF71EFAF3
:102C8000681C02D02846FFF719FA701C02D03046A3
:102C9000FFF714FA2068FFF7D3FE87F82A90C7F8E9
:102CA0000490BDE8F0870000E803002084020200E1
:102CB0000149024800F0FEBD14040020002000403D
:102CC0002DE9F0410546164600790F46154A00EBFE
:102CD000C00102EB810494F8201011B10820BDE876
:102CE000F081114951F820102868FFF791FE08B1D2
:102CF0001120F4E739462846FEF700F96660386986
:102D000020601EB1397F2846FEF7B4FB28680821F1
:102D1000C0F800150020A061E0610121606184F825
:102D20002010DCE714040020603C00002DE9F0478F
:102D300004460E460079204900EBC00001EB8005F7
:102D400017463046FFF75CFE30B1204600F036F8FB
:102D500020B11120BDE8F0871020FBE76F61AE6065
:102D60004FF49076002731462068FFF734FD4FF48A
:102D7000AC7841462068FFF72EFD2068AA68696993
:102D8000C0F84425C0F848152068012181606868B2
:102D900078B9B14649462068FFF718FD0646414616
:102DA0002068FFF713FD0643F4D000B10F27002081
:102DB00068613846CEE70000140400200079054918
:102DC00000EBC00001EB80004069002800D001202A
:102DD00070470000140400202DE9F04704460079F4
:102DE000274900EBC00001EB800720684FF0000985
:102DF000C0F80095786880B120682249C0F80813AF
:102E00002068012140F3073000F01F029140400983
:102E1000800000F1E020C0F880112068D0F80C2577
:102E2000D0F81485D0F80865D0F810554FF0FF3170
:102E3000C0F80C15C0F814152068C0F80815C0F8C3
:102E40001015501C02D01046FFF741F9B8F1FF3FB2
:102E500002D04046FFF73BF9681C02D02846FFF736
:102E600036F9701C02D03046FFF731F92068FFF7C1
:102E7000E7FD87F82090C7F80490BDE8F0870000D0
:102E8000140400201003020070B5164CA068164A06
:102E9000C2F80002A06A15490860154B091D9889FF
:102EA000823808601348012140F80C1F0021C0F847
:102EB0003411C0F83811104D4FF4E0502860501410
:102EC0002D1D2860C2F80C11187810B96169002016
:102ED00088470B49094808600A48E0600320607091
:102EE00070BD0000E00000200010004040A5004040
:102EF000880A002000A0004004F501406A0D00206F
:102F000004150040452F000010B50C4C606840F0DF
:102F100001006060FEF70AFF0948806A30B11220A4
:102F2000FDF760FBBDE8104000F0FCB900206070C8
:102F3000BDE810401220FDF755BB0000E000002066
:102F4000C80B00202DE9F047414A4FF4E0501060D3
:102F50004049D1F80C31DFF8009100273F4CB9F817
:102F60000E004E14DFF8F8800125E3B33D4B1B68DB
:102F7000CBB325611660D8F8041041F00101C8F800
:102F80000410D8F82010401A401CC8F82400FEF79E
:102F9000CDFE99F8000088B109F2E220017869B10C
:102FA0004078410830480068C0B200F04FF928B1BD
:102FB000D8F8040040F00400C8F804002B48806AE8
:102FC00050B199F81000012806D01220FDF70AFB35
:102FD000BDE8F04700F0A6B988F80170BDE8F047F9
:102FE0001220FDF7FFBAD8F820C0BCF1010CC8F8D8
:102FF00020C00BD225611660401CC8F82400D8F808
:10300000040040F00200C8F80400E5E7D8F8080022
:103010000F4640F00802C1F80022D8F81800D8F88E
:103020001410007888471048114928380160114869
:10303000C8F80C00022088F8010025600448001F31
:103040000660D4F84401002800D03D60BDE8F08758
:1030500008F5014000100040880A002000A0004050
:10306000E0000020001400402C150040C80B002098
:10307000480D0020892E00000449084490F93000D2
:10308000082801DB01207047002070478C030020D6
:103090000449084490F93000082801D20120704703
:1030A000002070478C03002010B50C46017A0529DA
:1030B00008D0407A38B1084808A102682046FEF7D7
:1030C000C1FE00E01AB106A12046FEF7BBFE204675
:1030D000BDE81040FEF7C3BEBC0000202573000011
:1030E0000D0A000038B5C3880D46044633B114A05C
:1030F000009015A216A12846FEF7A4FE217A052904
:103100001CD0607A48B1A088FFF7D0F8164951F872
:10311000202016A12846FEF795FEA0880021FFF783
:1031200059FA03461049207A143951F8202001B089
:103130002846BDE830400EA1FEF784BE38BD000031
:103140001B5B306D000000001B5B313B33316D00B9
:1031500025734C6F67732064726F707065642028EC
:1031600025642925730D0A00BC000020257300008A
:103170003C25733E2025733A200000000349884215
:1031800001D1034870470020704700000020004034
:103190001C0000200549002008624862886201F591
:1031A000AA7108624862886270470000C80B00205C
:1031B00070B5012670044FF0E0210025C1F88001B0
:1031C000084C4010C4F84803C4F8080366602F2078
:1031D000FFF708FBA660044C2F20A560FFF702FB59
:1031E000A57070BD001001404800002070B5054674
:1031F00088690C4600284FF4847128460AD0FFF7EE
:10320000D9FAD5F81805626AE1688854606A401CEA
:10321000606270BDFFF7CEFAD5F8180570BD1FB516
:1032200001238DF80030CDE90121D0E90012684674
:1032300090471FBD1FB501238DF800308DF8081091
:103240000192D0E90012684690471FBD2DE9F04178
:10325000224C07468846A06A08283DD2A4F525716D
:1032600020460A780026006A01F2E225012A03D0EE
:103270004A7842B1C97C02E0297820292CD854F838
:103280002020117002E054F820100E7054F8200035
:10329000A91C10F8052BFDF755F8206A54F82010EA
:1032A0004F700F49096854F82020917054F820207D
:1032B00082F80480697854F8202041F30001491C09
:1032C000401CD1702062082800D32662A06A401CEE
:1032D000A0620120BDE8F0810020FBE71C0D00206A
:1032E0004815004070B50D4C0020D2B22070201D52
:1032F0000B4D0378EB5C1BB1001DFFF717FD02E0DF
:103300000C30FFF719FC08B1FDF782FC607800284B
:1033100002D021780029FAD070BD00007000002092
:10332000100000202DE9F05F3D4C4FF00108C4F87B
:1033300024803C48DFF8F0A0A0F5A077416A3B4D1F
:103340004FF0000B50F82110A161387807F5307666
:1033500010B1012843D10DE0087861698847A1695F
:103360000879307086F801B011F8052BB01CFCF715
:10337000E9FF18E0C87820B3387D10B300208146FB
:103380000878307008794006000E7070CA78D2B1A3
:1033900000221043707011F8052BB01CFCF7D2FF0F
:1033A000B9F1000F11D0A06840F00800C5F8000284
:1033B0001120C5F80403F88920620220C4F80CA08B
:1033C0000CE00120DBE70122E3E7A068C5F800027A
:1033D0001020C5F804031648E06040466070A069FC
:1033E000144A417811604078444608FA00F0111DF3
:1033F00008600B480F4934302439C07C0860081F2E
:1034000006600120FDF7B7F80120FDF7D5F8C5F8F3
:1034100004B1C5F808B1C5F810B12C60BDE8F09F43
:10342000E0000020C80B0020892E000000100040A2
:10343000092F00002C1500402DE9F84F204D924631
:10344000894606469846012269461846AF68FDF748
:1034500099FD58B3009800210446801C09E000BF84
:1034600000EA07035AF8212005EB8303401C491C9E
:10347000DA604145F4D34FEA164AFDF7E5FE4AEA21
:103480000041601C384005EB80003C4005EB8402A5
:10349000C160D06866F3C50068F3891069F39F20A6
:1034A00020F00300401C20F00400D06095F82004B8
:1034B00002E000BFFEF712FF0028FBD1BDE8F88F45
:1034C000640600202DE9F84F1D4C00256846D4E91C
:1034D00001A6FDF7C3FE002738B30023009A6168F8
:1034E0001CE0D1F800C00846944503D9ACEB0202B9
:1034F0000A6015E0A2EB0C0263440760D0F80CC030
:10350000C1698146BCF1000F08D006EB030828F022
:103510007F48C0E9018CC9F81C5005460029E0D15C
:1035200028466160FEF728F803E02846FEF724F8F5
:1035300010B15046FDF7E6FDE770BDE8F88F0000DA
:10354000480000200D4B10B5596831B102680C6875
:10355000A24204D8A21A0A60C161586010BD0B468D
:1035600003E00B46C969121B21B10C689442F8D3E1
:10357000A41A0C600260C161D86110BD480000202F
:103580002DE9F041144E77683D462C4603E0844215
:1035900004D02546E469002CF9D11BE0D4B1A54242
:1035A0000BD1F869706040B90C4901208860002196
:1035B000B160F0702F20FFF715F92168E069E8612C
:1035C00010B10268114401607068874202D0012086
:1035D000BDE8F0810020FBE748000020001001401A
:1035E000F8B5064600240D462046FDF7C9FB68469F
:1035F00000F0F2FA68B10570084946609DF80000D5
:1036000048700020FDF7BEFB1420FCF7E0FF2046C9
:10361000F8BD04240020FDF7B5FBF8E758040020AE
:103620002DE9F041194D6C68002C2CD0184800276A
:103630000068A968B846401A20F07F462068B0426A
:103640000CD82146361A0744E469087C20B181F879
:103650001080886949698847002CEFD129786878FB
:10366000814206D1401CC0B26870022801D185F8A1
:103670000180064869780C3040F82170BDE8F041BF
:103680001420FCF7A4BFBDE8F08100004800002032
:103690000415014070B50C4605464FF48E71FFF7D6
:1036A00089F8216AA068415C206A401C2062C5F844
:1036B0001C1570BD1FB500228DF800200291816895
:1036C00001914261D0E90012684690471FBD000099
:1036D0001FB50A4601788DF8001041680191017A02
:1036E0008DF80810C0680390044850F82210001F9D
:1036F00050F82220684690471FBD000018000020A7
:1037000001490120087070477000002010B588B092
:10371000044620220E496846FCF714FE062000905D
:10372000C01F0190029003904FF0EB7006900CB117
:10373000084A00E0002269460748FEF7E1F808B1B0
:10374000FDF766FA0448001F447008B010BD000081
:10375000943C000001370000740000202DE9FF4771
:103760000C4605464FF40071FFF72AF801274FF485
:103770000178002618B34FF4927949462846FFF79E
:1037800014F8E0B149462846FFF714F8C5F8088355
:1037900094F8290000B96F6002208DF80000D5F878
:1037A0008004C5F880040390A0690290E06801904D
:1037B000A661E661D4E900126846904728E004213A
:1037C0002846FEF7FDFF18B34FF484712846FEF734
:1037D000ECFFE8B121462846FFF708FD616AA069C1
:1037E000884215D1E06938B1E268616AA061206958
:1037F000E6616662E06008E094F8290000B96F6055
:10380000C5F80883A661E268616A2046FFF707FDF4
:103810004FF48E7841462846FEF7C7FF78B1206AFC
:103820006169884202D294F8280020B341462846B4
:10383000FEF7C0FF616911B12046FFF73BFF4FF46F
:10384000A27841462846FEF7B0FF002818D041462E
:103850002846FEF7AFFF94F8290000B12F60A06959
:1038600000280DD0A661E268616A04B02046BDE878
:10387000F047FFF7D4BC21462846FFF70BFFDEE7F1
:10388000BDE8FF871FB50A4601788DF80010416832
:103890000191017A8DF80810C0680390044850F82F
:1038A0002210001F50F82220684690471FBD0000DC
:1038B000180000202DE9FF410C464FF49277054691
:1038C0003946FEF783FF0026C0B139462846FEF789
:1038D00082FF02208DF80000D5F88004C5F880042E
:1038E0000390D5F83C058DF80800E0680190A661CA
:1038F000E661D4E900126846904723E04FF48877E8
:1039000039462846FEF762FFE0B139462846FEF701
:1039100062FFD5F83C15A069884213D1E06960B117
:10392000E268D5F8000220F02000C5F80002E06946
:10393000A0612069E661E06001E0A661E2682046DE
:10394000FFF778FC4FF4A27739462846FEF73EFF92
:1039500060B139462846FEF73EFFA06930B1A66146
:10396000D5F83C152046E268FFF764FC4FF49077E9
:1039700039462846FEF72AFF002813D03946284644
:10398000FEF729FF606900280CD0D5F84C058DF8AA
:1039900000608DF80800A06801906661D4E900120B
:1039A00068469047BDE8FF812DE9F05F8346DDE979
:1039B0000A4A994690460D460846012703E000BF93
:1039C000B0FBF8F07F1C4045FAD2B94500D94F460C
:1039D0005FEACA7012D18CB15FEA8A7002D5B9F180
:1039E000000F01D0202607E0302605E0314658467A
:1039F000641EFDF70BFB0CB1A742F7D35FF0010685
:103A0000B9F1010F02D9A9F1010903E0B5FBF6F004
:103A1000404502D306FB08F6F2E7DFF83C9000BF12
:103A2000B5FBF6F000FB165519F800105846FDF7E7
:103A3000EDFAB6FBF8F6002EF2D15FEACA7009D0B3
:103A4000002C07D0A74205D220215846641EFDF75E
:103A5000DDFAF5E7BDE8F09F763C000010B50446BE
:103A6000C00704D00F48FDF73CF80F490860A007D5
:103A700006D50C48001DFDF734F80B49091D0860F8
:103A800060070DD507480830FDF7F6FA06490831FA
:103A9000086004480C30FDF7EFFA03490C31086068
:103AA00010BD0000140100201C1500400A48017AD6
:103AB0000A4801600A48492251B1012905D0032969
:103AC00006D0042901D0002070473021816200E037
:103AD0008262012070470000880A00201015004013
:103AE000E000002070B500F041F8FFF7DFFF194C4F
:103AF000194922787AB1012A0BD000220240607A5B
:103B0000B8B1164B1D1F01280ED0022807D0002582
:103B100013E0134A00E0134A4A610122EEE74FF630
:103B2000FF761E60104B03E0FF261E6040F2071375
:103B30002B600A4B083B1860012549691540E07C61
:103B40008847A089872801D3012000E00020284071
:103B500070BD0000880A0020E00000203C150040F5
:103B6000AD3B0000813B00002110010002480349E9
:103B7000807A086070470000880A00200C15004019
:103B8000084A074911600849497C491E090441EA6D
:103B90000021014341F08070111D08607047000052
:103BA00000010100141500401401002007490648D7
:103BB000086007480749407C401E41EA004003492D
:103BC000091D08607047000006000300141500403E
:103BD00014010020200000010A494A788B78521C09
:103BE000D2B2934200D100220B78934201D100203F
:103BF00070470270487800EB400001EBC000001DE8
:103C00007047000058040020000000000000000081
:103C10002C01002000000000000000000000000057
:103C20000338FDD8704700000800000006000000BF
:103C300005000000070000000000000000E0D701C0
:103C4000010000000000000001020000FA00030073
:103C5000000102200000000000000050552A000072
:103C6000B12C000003000000380400200000000018
:103C70000338FDD870473031323334353637383970
:103C8000414243444546000095220000692200005D
:103C900065220000FFFFFFFFFFFFFFFFFFFFFFFFA9
:103CA000FFFFFFFF00000000000000000000D60141
:103CB000060100000040404040404040404041413B
:103CC00041414140404040404040404040404040F1
:103CD000404040404005020202020202020202028B
:103CE0000202020202202020202020202020200288
:103CF0000202020202029090909090901010101018
:103D000010101010101010101010101010101010B3
:103D10000202020202028888888888880808080847
:103D20000808080808080808080808080808080813
:103D30000202020240000000B53C00007761726E92
:103D4000696E670064656275670000001B5B313B4C
:103D500033306D001B5B306D000000001B5B313B9E
:103D600033316D001B5B313B33326D001B5B313BEC
:103D700033336D001B5B313B33346D001B5B313BD8
:103D800033356D001B5B313B33366D001B5B313BC4
:103D900033376D00696E666F000000006572726FE8
:103DA00072000000636C6F636B000000434C4F4374
:103DB0004B0000004750494F5445000055415254B4
:103DC000000000005052530055415254450000007D
:103DD000756172745F6C6F675F6261636B656E645F
:103DE0000000000061707000643E000000000020D0
:103DF0002C010000C0030000BC3E00002C0100208C
:103E0000842C0000D40A0000883C00000000000060
:103E1000D03D000088000020A43D0000000000000C
:103E2000AC3D000000000000B43D000000000000B8
:103E3000BC3D000000000000C43D00000000000088
:103E4000C83D000000000000E43D00000000040444
:103E5000980000209000002098000020A405002079
:103E600018000000330301037441106420004094E3
:103E70002000400220FF339C3D333C3D33943D33D2
:103E8000443D33543D334C3D335C3D33643D336CF2
:103E90003D33743D337C3D33843DB38C3D032B1364
:103EA000011019E7E7E7E7C2C2C2C2E7C2C3C4C54F
:0C3EB000C6C7C80805FF020090D0030040
:0400000500000201F4
:00000001FF
