:020000040001F9
:10F000009054002015F401001DF401001FF40100CC
:10F0100021F4010023F4010025F4010000000000A8
:10F0200000000000000000000000000027F40100C4
:10F0300029F40100000000002BF401002DF4010070
:10F04000A9F601002FF401002FF401002FF40100B4
:10F050002FF401002FF40100A5F401002FF40100AA
:10F060002FF401002FF401002FF401002FF4010010
:10F070002FF401002FF401002FF401002FF4010000
:10F080002FF4010001F701002FF401002FF401001B
:10F0900025F701002FF4010029F701002FF40100EA
:10F0A0002FF401002FF401002FF401002FF40100D0
:10F0B0002FF401002FF40100000000000000000008
:10F0C0002FF401002FF401002FF401002FF40100B0
:10F0D0002FF401002FF401002FF4010000000000C4
:10F0E0000000000000000000000000000000000020
:10F0F0000000000000000000000000000000000010
:10F1000000000000000000000000000000000000FF
:10F1100000000000000000000000000000000000EF
:10F40000DFF80CD000F03CF800480047850102000E
:10F41000905400200648804706480047FEE7FEE774
:10F42000FEE7FEE7FEE7FEE7FEE7FEE7FEE7FEE7B4
:10F430004DF7010001F4010040EA01039B0703D0EE
:10F4400009E008C9121F08C0042AFAD203E011F823
:10F45000013B00F8013B521EF9D27047D2B201E0E5
:10F4600000F8012B491EFBD270470022F6E710B5C9
:10F4700013460A4604461946FFF7F0FF204610BD22
:10F48000064C074D06E0E06840F0010394E80700F1
:10F4900098471034AC42F6D3FFF7B6FFE0080200FD
:10F4A000000902002DE9F04700268CB0DFF86091DA
:10F4B000B0464FF48075012437460696284600F082
:10F4C000FFFF38B1D9F80403204203D0284600F0EA
:10F4D000EDFF26432D1D64007F1CADB2082FEDD338
:10F4E0004FF4BE74204600F0EBFF48B1204600F018
:10F4F000DDFF46F0004606AA0121002000F0C2FF11
:10F50000444D16F0FF0F15D00127002437420DD0CF
:10F5100009EB8401D1F81005D1F81015C0F30420CF
:10F5200055F82420C1F3014102B190477F00641CCB
:10F53000082CEBD3002E67DA4FF0FF30CDE90880BE
:10F5400000263446281910F8507F90F9000027F063
:10F55000C008401C44D009A9404600F0C7FE58B37B
:10F560004FEA9719404600F04BFC55F820701FB148
:10F57000B9F1030F03D00FE0B9F1030F30D108A8A0
:10F580004FEAD80208F00703815C4FF0010C0CFA37
:10F5900003FC41EA0C0181544FF0A04101EB8800CB
:10F5A000D0F8000706A9C0F3014A404600F09EFECD
:10F5B00018B1BAF1020F03D012E0BAF1030F0FD164
:10F5C000B9F1030F08D1BAF1020F1BD00221404656
:10F5D00000F047FF761CF6B217B149464046B847DF
:10F5E000641C042CAED3002E0ED06A4601210020EC
:10F5F00000F048FF06990098884205D006900898C8
:10F6000009909DE70321E2E70CB0BDE8F087000018
:10F61000006000402C34002000F01F0201219140C6
:10F620004009800000F1E020C0F88012704700F02F
:10F630001F02012191404009800000F1E020C0F844
:10F640008011704700F01F020121914040098000A5
:10F6500000F1E020C0F80011704700F01F02012106
:10F6600091404009800000F1E020C0F8001170478F
:10F6700000F01F02012191404009800000F1E020CC
:10F68000C0F8001270474907090E002806DA00F09A
:10F690000F0000F1E02080F8141D704700F1E02019
:10F6A00080F80014704700002DE9F0414FF4807796
:10F6B000384600F023FE0124104EA50748B1384615
:10F6C00000F023FE0120C5F808037470002000F04C
:10F6D0009FFB4FF48277384600F010FE00280BD0D5
:10F6E000384600F012FE0220C5F80803B470BDE8E9
:10F6F000F041012000F08CBBBDE8F08118340020FF
:10F7000007480021C0F84011C0F84411C0F8481162
:10F71000C0F84C11C0F80011C0F8041101F02EB867
:10F720000010014000F0C6BF074810B5406830B176
:10F730008047002807D0BDE8104000F07BBABDE844
:10F74000104000F033BC10BD28330020F0B59848BD
:10F750000023021D01780125101D4FF08056062957
:10F7600007D11478240704D10478C4F30314032CBC
:10F7700002D0062904D00FE08F4F8E4C7C670EE03C
:10F780001478240708D10478C4F30314032C06D09A
:10F79000042C04D0052C02D0062907D00EE0D6F8A0
:10F7A0004442864FC4F342343C6002E0147824079C
:10F7B00004D10478C4F30314032C02D0062906D024
:10F7C00011E07F4C276827F0807727600EE01478DF
:10F7D000240708D10478C4F30314032C06D0042CA6
:10F7E00004D0052C02D006290AD011E04FF0804445
:10F7F000C4F80C31C4F81031704C241F236002E0AF
:10F800001478240704D10478C4F30314032C02D021
:10F81000062905D00CE0694F032464373C600AE0F8
:10F820001478240704D10478C4F30314032C02D001
:10F8300006290DD014E0634F05243C60614C7834F8
:10F840002560604C083423603F243F1D3C6002E08B
:10F850001478240704D10478C4F30314052C02D0CF
:10F86000062957D068E058490968584A1160564936
:10F87000091D0968121D1160534908310968121DDC
:10F88000116051490C310968121D11604E49103147
:10F890000968121D11604C4914310968121D11606C
:10F8A000494918310968494A2032116046491C31DA
:10F8B0000968121D1160444920310968121D116048
:10F8C000414924310968121D11603F4928310968F6
:10F8D000121D11603C492C310968121D11603A4912
:10F8E00030310968394A403211603749343109688A
:10F8F000121D1160344938310968121D11603249F6
:10F900003C310968121D11602F4940310968121DF0
:10F91000116002E0117809070ED10078C0F30310DE
:10F92000032803D0042801D0052805D1D6F85802B1
:10F93000274900F04F00086021487438016841F4FD
:10F9400070010160BFF34F8FBFF36F8F4FF0102135
:10F95000D1F80002002803DBD1F80402002822DAE3
:10F960001C4A15601C480468002CFCD01524C1F802
:10F9700000420568002DFCD0C1F80442016800294E
:10F98000FCD0136001680029FCD0BFF34F8F0C48F6
:10F99000F0380168114A01F4E06111430160BFF3DE
:10F9A0004F8F00BFFDE70F490D480860F0BD000014
:10F9B000E00F00F00DF0ADBA00C007403C0500407C
:10F9C000FCED00E0105600400404001020C500408B
:10F9D000E40E004004E5014000E401400400FA05A3
:10F9E0000090D0033C33002002E008C8121F08C179
:10F9F000002AFAD170477047002001E001C1121FB0
:10FA0000002AFBD1704700000121202803DA814041
:10FA10000548014003E0402802DA2038814009B15E
:10FA20000120704700207047FC06FFBC2DE9FC4711
:10FA3000002517880646158090F82D001446894643
:10FA400030B13A462146484600F0AAF9050009D1EE
:10FA5000B0784FF00C0A18B32088C846001DB84291
:10FA600002D95046BDE8FC87684679DF0028F9D105
:10FA70002088032108F8001020881921401C80B23A
:10FA8000208008F800102088401C80B2208000EB05
:10FA90000801BDF8000000F0B3FE21880844208072
:10FAA000F0780222C8B1218896F9033001F1030CE5
:10FAB0004846BC45D5D8425421884FF0010C491C1A
:10FAC00089B2218000F801C02188491C89B22180B7
:10FAD00009F801302088401C20807068B8B1218866
:10FAE00090F9003001F1030C4846BC45B9D84254A6
:10FAF00021880A22491C89B2218042542188491C4C
:10FB000089B2218009F801302088401C208030898A
:10FB100050B1CDE900474B460622022106F108000C
:10FB200000F073FE05009DD1308A50B1CDE9004749
:10FB30004B460722032106F1100000F066FE050087
:10FB400090D1308B50B1CDE900474B46152214219E
:10FB500006F1180000F059FE050083D1306A30B17B
:10FB60003B462246494600F0BDF90500DBD1706AEC
:10FB700030B13B462246494600F038FB0500D2D161
:10FB800096F82C0038B13B4622464946304600F0F4
:10FB9000F5FC0500C7D1307838B13B4622464946CE
:10FBA000304600F055FB0500BDD128465AE700005D
:10FBB00030B593B04C20ADF83C001348119017209D
:10FBC000ADF8400004253C216846FFF74EFC0024B8
:10FBD0000FA88DF8004009908DF803502146684623
:10FBE00000F0AAF808B100F025F808480321846461
:10FBF000C46404654465483001700472A0214181E9
:10FC0000848113B030BD0000F0320020C0330020EA
:10FC1000BFF34F8F05480168054A01F4E0611143C5
:10FC20000160BFF34F8F00BFFDE700000CED00E067
:10FC30000400FA050EB500210091CDE901106A46D5
:10FC400044F20100FFF7E4FF0EBD00002DE9F0478C
:10FC5000074698461446894690074FF0000526D17E
:10FC60002CB300F035FC134E06F11000C6F80C80E2
:10FC70000570457080F8029044607560357075704D
:10FC80001420FFF7C9FC07211420FFF7FCFC142007
:10FC9000FFF7D8FC0848076007211120FFF7F3FCA5
:10FCA0000548001F0068B0600020BDE8F08707200D
:10FCB000FBE70000083300200815014030B5EFF3E2
:10FCC000108172B60D4A9468012324B10370002993
:10FCD00000D162B630BD93604FF0E023D3F880517D
:10FCE000074C25401560C3F88041D3F88441546027
:10FCF0005A17C3F8842100220270E8E784340020F8
:10FD0000FC06FFBC0B498A68002A11D000280FD1DD
:10FD1000EFF3108072B60B684FF0E022C2F80031AA
:10FD20004B68C2F8043100228A60002800D162B614
:10FD30007047000084340020F0B50C4693B01F21BA
:10FD40000726ADF80010ADF80410002750B1C178B7
:10FD500049070DD56A4602A9FFF768FE002808D1B9
:10FD600002AD02E00025ADF800706CB1E07810B192
:10FD7000304613B0F0BD01AA0AA92046FFF756FE8F
:10FD80000028F6D10AAA02E00022ADF80470BDF8FE
:10FD90000400C3B2BDF80000C1B2284672DFE8E734
:10FDA0007CB5054608880C460930904201D90C20E4
:10FDB0007CBD68466DDF0028FAD121880820685490
:10FDC00020881B21401C80B2208029542088401CA0
:10FDD00080B220802844DDF801100160BDF80510D4
:10FDE00081802088801D80B220809DF80010490805
:10FDF00000D0012129542088401C208000207CBD97
:10FE00000249084490F93000704700002C3400206B
:10FE100070B5084C050009D010342168002907D0BE
:10FE200008682060496828468847F6E70834F4E700
:10FE300070BD0000183400202DE9F05F26484168AD
:10FE4000F1B3DFF898B00E688146DBF800408768B0
:10FE50008078E11B21F07F45ED1CB0B9DFF8808090
:10FE60004FF48030C8F84403C8F804031120FFF7AA
:10FE7000D3FB1120FFF7E6FB4FF0010AC8F800A002
:10FE80002F2000F04BFA89F802A0B54200D2354687
:10FE9000124BE8193C3320F07F401860DBF800106B
:10FEA0005A46091B21F07F41001B20F07F40C91CEE
:10FEB00081420FD9106818602F2000F02FFA00E05F
:10FEC00004E0BDE8F05F1120FFF7D2BBBDE8F05FB2
:10FED00000F0FEBABDE8F09F083300200415014091
:10FEE000001001402DE9F04117880646B81D144660
:10FEF0000D46984202D90C20BDE8F08131880722D6
:10FF000006290AD34FF4486C4FF6FF73614501D9B7
:10FF1000994202D17088062801D21046ECE760456C
:10FF200001D99842F9D1994203D0984201D0814237
:10FF3000F3D80520E85520881221401C80B220808B
:10FF400029542088401C80B220804119308800F05C
:10FF500057FC2188084480B220804119708800F045
:10FF60004FFC2188084420800020C5E70E4910B5C9
:10FF70000A784C780023A24212D0521CD2B20A70E6
:10FF8000022A00D10B70084A0B78183252F823204D
:10FF900002608868104420F07F408860012010BD16
:10FFA0000360002010BD000008330020F8B51C4C91
:10FFB0002078002832D0E068002658B1002560780B
:10FFC00000282BD1684648DF052805D030B1FFF75F
:10FFD00031FE0AE00125F2E7012606E0009800F074
:10FFE0001FFA216909B1009888479DB960780028F7
:10FFF00014D16088ADF800006946A06861DF05286B
:020000040002F8
:1000000003D020B1FFF716FE04E0012502E0D4E999
:1000100002018847002ED2D0002DE6D0F8BD0000A6
:10002000283300202DE9F043264CA4F11009227852
:10003000D9F8048099F80350404694F801C0D9F8E3
:10004000086031E002EB42036168521C01EBC3011E
:10005000A378D2B2934200D100220B78022B02D0B7
:10006000032B21D11DE003464F68194603E0B94236
:1000700003D00B46C969B9B1F9E7A9B18B4205D1E3
:10008000C06918B9104E0125B56000260F68C9690E
:10009000D96149B10B683B440B6005E00174C0694C
:1000A00000E000210028F9D19445CBD1C9E901062F
:1000B00089F80350404502D00120BDE8F0830020BC
:1000C000FBE7000018330020001001402DE9F0414B
:1000D0002A4F0446002607F11005D7F804803EE0B9
:1000E00002D02046E4691DE02878696800EB4002F0
:1000F000401CC0B201EBC2012870AA78904200D126
:100100002E700A784868012A2BD1027C4ABB8A6883
:100110004260CA6882600A69C26049698161F9788F
:1001200001B146604368BA68DFF854C0991A21F0FB
:100130007F41614502D28268114406E0D11A82688B
:1001400021F07F418A4202D9511A016000E0066025
:100150004660012186600174C66100F0F1FA002C4E
:10016000BED1287869788842BED17968414502D0ED
:100170000120BDE8F0810020FBE7000008330020EB
:10018000FFFF7F00002388B0164A05211846FFF7BD
:100190005DFD08B1FFF74EFD1348124900230068CA
:1001A00007905022503907A800F04CFA08B1FFF729
:1001B00041FD00216A46084600F02EFA08B1FFF71B
:1001C00039FD684600F01EFA08B1FFF733FDFFF76E
:1001D000EFFC0448783073DF3EDF0028FCD0FFF7E7
:1001E00029FDF9E790330020D808020070B51446C5
:1001F00082880E4605462088111D0144921C9942B2
:1002000001D8FE2A01D90C2070BD521C325420881E
:10021000FF21401C80B2208031542088401C80B2D5
:1002200020808119288800F0EBFA2188084480B2E8
:100230002080AA8842B1A96841B13044FFF7FCF898
:100240002088A98808442080002070BD072070BD48
:10025000F8B50E46017814460546012901D16878A3
:1002600030B12088821C9A422DD8012902D006E0A4
:100270000720F8BD69780144891C994223D8181ACF
:10028000801E87B2ADF800702188B01C0844694612
:100290007DDF0028EDD12878022805D1BDF80010B7
:1002A000B94201D809210AE00821012805D168785E
:1002B000B84202D8ADF8000001E0ADF80070BDF81A
:1002C0000000FE2801D90C20F8BD2288401CB05443
:1002D0002088401C80B2208031542088401C20801F
:1002E000BDF80010084420800020F8BDC20800F0CE
:1002F00007030120895C98400840704700F1804066
:100300000068002800D00120704708B500F1804047
:10031000002101600068009008BD000000283ED068
:100320001F49204A096800BF00BF00BF00BF00BFCF
:1003300000BF00BF00BF91422FD000BF00BF00BF71
:1003400000BF00BF00BF00BF00BF00BF00BF00BFB5
:1003500000BF00BF00BF00BF00BF00BF00BF00BFA5
:1003600000BF00BF00BF00BF00BF00BF00BF00BF95
:1003700000BF00BF00BF00BF00BF00BF00BF00BF85
:1003800000BF00BF00BF00BF00BF00BF00BF00BF75
:1003900000BF00BF00BF00BF00BF401EC3D17047F9
:1003A0003C3300200024F40070B50F4C0025207869
:1003B00008B1852516E00021A16061602161E1603E
:1003C0004FF0E020D0F80001012610F0010F03D11A
:1003D0000721002000F029F800F066F908B9034869
:1003E00006602670284670BD1834002018050040AD
:1003F00038B500208DF800006846FFF75FFC074C19
:10040000207808B9FFF7D0FFE068401CE0600120C9
:10041000A0709DF80000FFF775FC38BD183400206F
:10042000002801D1FFF7F4BC70474907090E0028E6
:1004300006DA00F00F0202F1E02282F8141D03E058
:1004400000F1E02282F8001400F01F020121914027
:100450004009800000F1E020C0F88012C0F80011CF
:1004600070474FF0A04202EB8000D0F8002722F442
:100470004032C0F80027D0F8002742EA0141C0F816
:100480000017704718B5084B6C4601441B68009371
:1004900006E000BF54F82030D3F81035401C08C2E5
:1004A0008142F7D818BD0000DC080200034908B5F6
:1004B0000844002101600068009008BD0060004011
:1004C00002494058012800D00020704700600040D9
:1004D00070B5012670044FF0E0210025C1F88001BD
:1004E000084C4010C4F84803C4F8080366602F2085
:1004F000FFF714FFA660044C2F20A560FFF70EFF46
:10050000A57070BD001001400833002010B50446EE
:10051000FFF77AFA40B1002C09DA04F00F0000F17D
:10052000E02090F8140D06E042F2010010BD04F145
:10053000E02090F800044109082914D299B101295A
:1005400011D004290FD005290DD00B480122816854
:1005500061B1610950F8213004F01F04A240134337
:1005600040F8213005E042F2020010BD2046FFF7BE
:1005700074F8002010BD0000843400202DE9F04103
:100580000746806A14468846C8B3002531E000BF9C
:10059000B96A05EB450001EB8006B088801CFE2897
:1005A00002D90C20BDE8F0812288401C08F8020026
:1005B00020881622401C80B2208008F80020208865
:1005C000401C80B2208000EB0801308800F018F950
:1005D0002188084480B22080B28842B1B16871B1EC
:1005E0004044FEF729FF2088B188084420806D1C14
:1005F000EDB297F82C00A842CAD80020D2E7FFE756
:100600000720CFE71CB5034901910091694660DFDF
:100610001CBD0000F032002070B50E4605461446A1
:100620001C211046FEF721FF012020800021A1613E
:1006300021752672657205B1A072002070BDFFF7AA
:10064000E7BA00002DE9F041074619B188074FF0DD
:10065000000402D00720BDE8F081114D4FF0E020EA
:100660000126A9606A806B60D0F8000110F0010FCC
:1006700003D034460020FEF7DAFF0A49384610DF7F
:10068000070005D014B10020FEF7E7FF3846E2E787
:100690002E70FFF7ADFEBDE8F0411620FFF736BF24
:1006A000283300203F060200014800787047000010
:1006B000283300202DE9F84F204C00256846D4E966
:1006C00001B6FFF753FC8046FFF7ACFC0746A9468E
:1006D000B8F1000F25D00023009ACC46606819E0DD
:1006E00007680146974202D9BA1A026014E0C1F8BD
:1006F00000C0D1F80C80D21BC8693B448A46B8F1CF
:10070000000F07D0F71827F07F47C1E90178CAF832
:100710001C500D460028E3D160602846FFF7D6FC48
:1007200004E02846FFF7D2FC00B917B15846FFF79E
:1007300083FB84F80390BDE8F88F000008330020A5
:100740000D4B10B5596831B102680C68A24204D84B
:10075000A21A0A60C161586010BD0B4603E00B4647
:10076000C969121B21B10C689442F8D3A41A0C6019
:100770000260C161D86110BD083300202DE9F0414D
:100780001D4D6C68002C35D01C4800270068A968F6
:10079000B846401A20F07F462068B04215D822465D
:1007A000361A0744E469107C68B182F81080EB685F
:1007B00033B1D2E90501984728B1FFF73BFA02E0CF
:1007C000D2E905108847002CE6D129786878814263
:1007D00006D1401CC0B26870022801D185F80180A2
:1007E00005486978183040F82170BDE8F0411420C0
:1007F000FEF73EBFBDE8F08108330020041501403C
:100800000870000A4870022070472DE9FC41164626
:10081000DDE90854CDE900541F468046022200F06D
:100820000CF8002807D1CDE900543B461022314690
:10083000404600F002F8BDE8FC812DE9FC5F00268F
:10084000DDE90C4B994692468E4680462788354610
:1008500030E0D8F80400002200EB8500694600680B
:10086000019001A865DF002830D19DF800005045B7
:100870001FD10EB1002100E0022122880844111886
:10088000594522D846B9521C90B2208009F800E0A0
:100890002088401C20800126218801A801EB090244
:1008A000694665DF002811D120889DF800100844B2
:1008B00020806D1CB8F80000A842CADC56B1208820
:1008C000C01B401E80B2FF2802D90C20BDE8FC9F4F
:1008D00009F807000020F9E70100000700000050B8
:1008E00000090200F032002050000000E8F9010089
:1008F000500902004033002050210000F8F90100A7
:1009000002150112233445566778899AABBCCDDEB7
:10091000EFF001020306C300000000000000000029
:1009200000000000000000000000000000000000C7
:1009300000000000000000000000000000000000B7
:100940000000000000000000000000000090D00344
:040000050001F40101
:00000001FF
