:020000040000FA
:1000000048260020150200001D0200001F0200000B
:100010002102000023020000250200000000000071
:1000200000000000000000000000000027020000A7
:1000300029020000000000002B0200002D02000039
:100040002F020000350400007D0700002F02000091
:100050002F0200002F0200002F0200002F020000DC
:100060002F0200002F0200002F0200002F020000CC
:100070002F0200002F0200002F0200002F020000BC
:100080002F0200002F020000D10300002F02000009
:100090002F0200002F0200002F0200002F0200009C
:1000A0002F0200002F020000550700002F02000061
:1000B0002F0200002F0200000000000000000000DE
:1000C0002F0200002F0200002F0200002F0200006C
:1000D0002F0200002F0200002F020000000000008D
:1000E0000000000000000000000000000000000010
:1000F0000000000000000000000000000000000000
:1001000000000000000000000000000000000000EF
:1001100000000000000000000000000000000000DF
:1001200000000000000000000000000000000000CF
:1001300000000000000000000000000000000000BF
:1001400000000000000000000000000000000000AF
:10015000000000000000000000000000000000009F
:10016000000000000000000000000000000000008F
:10017000000000000000000000000000000000007F
:10018000000000000000000000000000000000006F
:10019000000000000000000000000000000000005F
:1001A000000000000000000000000000000000004F
:1001B000000000000000000000000000000000003F
:1001C000000000000000000000000000000000002F
:1001D000000000000000000000000000000000001F
:1001E000000000000000000000000000000000000F
:1001F00000000000000000000000000000000000FF
:10020000DFF80CD000F06EF80048004779170000C6
:10021000482600200648804706480047FEE7FEE7DC
:10022000FEE7FEE7FEE7FEE7FEE7FEE7FEE7FEE7A6
:10023000BD0400000102000040EA01039B0703D057
:1002400009E008C9121F08C0042AFAD203E011F815
:10025000013B00F8013B521EF9D27047D2B201E0D7
:1002600000F8012B491EFBD270470022F6E710B5BB
:1002700013460A4604461946FFF7F0FF204610BD14
:100280002DE9F05F0546002092469B4688460646CB
:10029000814640241BE0284641464746224600F05E
:1002A00042F853465A46C01A914110D31146184697
:1002B000224600F029F82D1A67EB01084F46224626
:1002C0000120002100F020F817EB00094E41201E0C
:1002D000A4F10104DFDC484631462A464346BDE826
:1002E000F09F0000064C074D06E0E06840F0010377
:1002F00094E8070098471034AC42F6D3FFF784FF28
:10030000BC360000DC360000202A04DB203A00FA6C
:1003100002F1002070479140C2F1200320FA03F35C
:10032000194390407047202A04DB203A21FA02F05A
:100330000021704721FA02F3D040C2F1200291401F
:10034000084319467047000000F01F020121914048
:10035000024A430942F823107047000080E200E09F
:1003600000F01F0201219140024A430942F8231084
:100370007047000080E100E000F01F020121914081
:100380004209920002F1E022C2F800117047000019
:1003900000F01F0201219140024A430942F8231054
:1003A0007047000000E200E010B5002807DA4A07B5
:1003B000140E054A00F00F031B1FD45403E04A0734
:1003C000130E024A135410BD18ED00E000E400E0E3
:1003D0003EB516480068019002A801F04DFB0446A6
:1003E0001CBB1348006800B3029800F0010030B154
:1003F00000208DF8000068460D490968884702987A
:1004000000F0020030B101208DF800006846084974
:1004100009688847029800F0040030B102208DF886
:10042000000068460249096888473EBD7000002008
:100430004800002010B51948006838B11848006815
:1004400000F0010010B100201449086013480C307E
:10045000006870B11248006800F0080048B1002040
:100460000E490C3108600F48006810B10D48006853
:1004700080470A481030006870B10948006800F0F1
:10048000100048B100200549103108600648006896
:1004900010B105480068804710BD00000011004001
:1004A00004130040800000207C0000200148024925
:1004B000086070470090D0038800002010B500F05D
:1004C000CDFE28B192480088C0F30420914908600D
:1004D00000F018FF10B190489049486700F03AFFCB
:1004E00030B18B48E0380068C0F342308C49086076
:1004F00000F05AFF28B18B48006820F080708949CD
:10050000086000F069FF48B10020874908604FF09B
:100510008041C1F810018249091F086000F086FF80
:1005200018B103207E496431086000F097FF68B17C
:1005300005207E49086001207C4978310860002050
:100540007A49083108603F20091F086000F09EFFCB
:10055000002855D06E48E0300068754908606C4846
:10056000E4300068091D08606948E8300068091D2A
:1005700008606748EC300068091D08606448F03086
:100580000068091D08606248F4300068091D0860B1
:100590005F48F83000686649203108605C48FC30EC
:1005A0000068091D086063480068091D086061480B
:1005B000001D0068091D08605E4808300068091DBC
:1005C00008605C480C300068091D0860594810300C
:1005D0000068574940310860564814300068091DCA
:1005E0000860544818300068091D086051481C30E4
:1005F0000068091D08604F4820300068091D086028
:1006000000F002FE30B14248CC38006800F04F00E4
:100610004949086000F04CFE40B14848006800F0CD
:10062000010018B16FF001004449086000F082FE3B
:1006300028B14348006840F4806041490860394867
:100640007438006840F4700036497439086000BF9F
:1006500000BF00BFBFF34F8F00BF00BF00BF00BF90
:1006600000BF00BFBFF36F8F00BF00BF00BF3548A2
:10067000006800F0004028B93248001D006800F012
:100680000040E8B301203049086000BF2F480068EF
:100690000028FBD015202B49086000BF2B480068BC
:1006A0000028FBD015212748001D016000BF274806
:1006B00000680028FBD000202349086000BF2348C1
:1006C00000680028FBD000BF00BF00BF00BF00BF14
:1006D000BFF34F8F00BF00BF00BF1248F038006863
:1006E00000F4E0601A490843001D0E49F039086023
:1006F00000BF00BF00BFBFF34F8F00BF00BF00E0CF
:1007000003E000BF00BF00BFFDE7FFF7CFFE10BD55
:1007100024030010403501400DF0ADBA00C0074081
:100720003C050040FCED00E00C010040105600408C
:1007300020C5004024040010E40E004000040040E6
:100740003C1700400012001004E5014000E40140A5
:100750000000FA050648006848B100200449086016
:1007600004480078032802D101200349086170473A
:1007700040A10140410000200010004010B5024996
:100780000868804710BD0000040000200FB4054B2E
:1007900010B503A9044A029800F018F810BC5DF8DF
:1007A00014FB0000C51500003800002002E008C856
:1007B000121F08C1002AFAD170477047002001E0DB
:1007C00001C1121F002AFBD1704700002DE9FF4F25
:1007D0008DB00F460546002606E025280BD0DDE942
:1007E0000F1290476D1C761C28780028F5D111B0A7
:1007F0003046BDE8F08F0024A246A1460122EC4914
:1008000000E0044315F8013F203B02FA03F00842E0
:10081000F7D128782A2810D06FF02F022878A0F17D
:100820003001092914D80AEB8A0102EB410144F096
:10083000020400EB010A6D1CF0E701CF5FEA000A39
:1008400003D544F40054CAF1000A44F002046D1CBC
:1008500028782E2817D115F8010F44F004042A280F
:100860000ED06FF02F022878A0F1300109290AD8A4
:1008700009EB890102EB410100EB01096D1CF2E774
:1008800057F8049B6D1C28786C280FD006DC4C2888
:1008900017D068280DD06A2814D104E0742810D02D
:1008A0007A280FD10DE044F400140AE044F48014D7
:1008B00001E044F440146978814202D104F58014C7
:1008C0006D1C6D1C2A786E2A1FD00CDC632A31D077
:1008D00004DC002A8BD0582A11D1A3E0642A68D006
:1008E000692A0CD165E0732A2ED004DC6F2A73D0FC
:1008F000702A04D19BE0752A6FD0782A6ED01046FA
:10090000DDE90F129047761C50E1C4F30250022833
:1009100006D0032809D0042801CF09D0066045E19C
:1009200001CFF117C0E9006140E101CF06803DE150
:1009300006703BE117F8040B8DF8000000208DF8DD
:100940000100EB46012003E057F804BB4FF0FF30F5
:1009500061074FF0000102D40DE008F10101884663
:1009600049450FDA8045F8DB1BF808100029F4D15F
:1009700008E008F1010188468142FADB1BF8081003
:100980000029F6D1DDE90F23AAEB080081462146B4
:1009900000F036F9304400EB080604E0DDE90F1200
:1009A0001BF8010B9047B8F10108F7D221464846E1
:1009B000F7E00A21C4F302534FF0000B0891022B19
:1009C00004D001CFC117032B09D00AE0FF1D27F087
:1009D0000707F7E8020108E032E01FE020E000B27C
:1009E000C117042B01D140B2C117031E71F10003DE
:1009F00007DA4FF0000CD0EB0C006CEB01012D235B
:100A000002E0230504D52B238DF82430012303E0D5
:100A1000E30701D02023F7E7984658E00A2110E0C9
:100A200010210EE010204FF0000B08900CE0102178
:100A30004FF0000B44F004044FF00809089103E064
:100A400008214FF0000B0891C4F30253022B04D08D
:100A500001CF0021032B06D006E0FF1D27F007077A
:100A6000F7E8020103E080B2042B00D1C0B24FF0DE
:100A7000000823072BD5702A07D0DDF820C08CF0A2
:100A8000100C5CEA0B0C05D00EE040238DF82430EE
:100A9000012308E050EA010306D030238DF824300A
:100AA0008DF8252002239846DDF820C08CF0080C34
:100AB0005CEA0B0C0BD150EA010301D1630706D5A8
:100AC00030238DF824304FF00108A9F10109582A8C
:100AD00004D038A20B9208AA0A920BE03AA2F9E7D6
:100AE0005B46089AFFF7CCFB0B9B9B5C0A9A521E55
:100AF0000A92137050EA0102F2D10A98ADEB00009D
:100B000000F1200B600702D524F4803401E04FF09F
:100B10000109D94502DDA9EB0B0000E0002000EB44
:100B20000B0141440890AAEB010AE00306D4DDE979
:100B30000F232146504600F063F806444FF00009A9
:100B400008E009A911F80900DDE90F12904709F141
:100B50000109761CC145F4DBE0030CD5DDE90F2368
:100B60002146504600F04CF8064404E0DDE90F123F
:100B700030209047761C0899481E08900029F5DC23
:100B800008E00A980A990078491C0A91DDE90F12D9
:100B90009047761CBBF10001ABF1010BF1DC214663
:100BA0005046DDE90F2300F019F806446D1C1BE6E2
:100BB0000928010030313233343536373839616233
:100BC00063646566000000003031323334353637F7
:100BD0003839414243444546000000002DE9F041C8
:100BE000044600251E461746880404D405E039460D
:100BF0002020B0476D1C641EF9D52846BDE8F08161
:100C00002DE9F041044600251E469046C80301D553
:100C1000302700E02027880404D505E04146384607
:100C2000B0476D1C641EF9D52846BDE8F08110B5AB
:100C30000446204600F09EFA00BA10BD72B600BF0E
:100C40001348006800F0010000B100BE00BF00BF03
:100C500000BF00BF00BF00BFBFF34F8F00BF00BF8A
:100C600000BF0B48E438006800F4E060094908431D
:100C7000001D0749E439086000BF00BF00BFBFF393
:100C80004F8F00BF00BF00BF00BF00BFFDE70000E7
:100C9000F0ED00E00000FA053EB5044600200090AB
:100CA0000190029002946A46002144F20100FFF78D
:100CB000C5FF3EBD70B504460D46204600F06BFCF6
:100CC00028B12946204600F055FC002070BD0520C3
:100CD000FCE7034609B90E20704712B1501E1040C0
:100CE00008B10920F8E71960501E9880002098602C
:100CF000D86000BFF0E770B504460D46204600F00E
:100D00004AFCA188884205D82946204600F051FCBB
:100D1000002070BD0420FCE72DE9F04188B00446B6
:100D20000E46174698462B4807601EB9072008B0A4
:100D3000BDE8F081B08882B227483168FFF7C9FF6B
:100D4000054600BF284600B1F1E700BFB08982B276
:100D50002248B168FFF7BDFF054600BF284600B135
:100D6000E5E700BF20221E496846FFF765FA606983
:100D70000690207C08B1012000E000208DF81400CE
:100D80008DF81C80607C08B10E2000E000208DF8FA
:100D90001500E0680290A0680390206801906068E8
:100DA0000090104A6946104800F00CFD054600BF4F
:100DB000284600B1BBE700BF00200C49087020683E
:100DC000401C28B101220A49074800F041FDAEE766
:100DD0000020ACE7300000200403002014030020B2
:100DE0009C360000953000001C00002036000020DA
:100DF000350000202DE9F041054629461448FFF74B
:100E00007AFF064606BB134C002720781249085C7F
:100E100020B1201D01F070FC074608E020780E4943
:100E2000085C20B904F10C0001F01AFB074600BF72
:100E300057B90A490648FFF73DFF28B9012207497B
:100E4000044800F027FD06463046BDE8F08100006A
:100E5000140300201C000020140000203400002097
:100E600000B5024600F006F800BD00B5024600F0ED
:100E70000BF800BD72B603480068401C01490860C9
:100E8000704700001800002004480068401E034915
:100E900008600846006800B962B670471800002074
:100EA0002DE9F04F4748006800F47F40B0F5844FCB
:100EB0000DD14548006820F00100434908604348CF
:100EC000006820F0010040F08070404908603D4813
:100ED000006800F47F40B0F58A4F6FD13C48407CF9
:100EE000052801D13B4801E04FF07F4001463A48D8
:100EF000006800EA01023848001D006800EA0103AA
:100F00009A425AD1DFF8D0A00AF1080ADAF800A014
:100F10000AF0FF00DFF8C0A00AF1080ADAF800A022
:100F2000CAF30724DFF8B0A00AF1080ADAF800A033
:100F3000CAF30745DFF8A0A00AF1080ADAF800A012
:100F40004FEA1A66DFF890A00AF10C0ADAF800A05E
:100F50000AF0FF07DFF880A00AF10C0ADAF800A017
:100F6000CAF3072CDFF870A00AF10C0ADAF800A027
:100F7000CAF30748DFF860A00AF10C0ADAF800A00B
:100F80004FEA1A69A0420BD0A84209D0B04207D05C
:100F9000B84205D0604503D0404501D048450BD14B
:100FA000DFF828A0DAF800A02AF0010A4AF0807AD7
:100FB000DFF818B0CBF800A000BF00BF0020BDE8EC
:100FC000F08F00000401001050160040741700401C
:100FD0004C0000200000FFFF1C15004070B50546C6
:100FE0000C462068401C28B1206801F04BF82068AE
:100FF00001F030F86068401C18B10021606801F011
:101000000FF82868A169C0F8241500BF617D227D12
:10101000286841EA0203C0F86C3500BFD4E9001229
:10102000286801F0BAF8207D012814D1A068401C7E
:1010300018B10021A06800F0F3FFE068401C28B15F
:10104000E06801F01FF8E06801F004F8D4E902213B
:10105000286801F08EF870BD70B505460C46206812
:10106000401C28B1206801F018F8206800F0FEFF4D
:101070006068401C18B10021606800F0DEFF28683D
:10108000A169C0F8241500BF617D227D286841EA6E
:101090000203C0F86C3500BFD4E90012286801F0E3
:1010A0004FF8207D012814D1A068401C18B1002100
:1010B000A06800F0C2FFE068401C28B1E06800F0C2
:1010C000ECFFE06800F0D2FFD4E90221286801F0CB
:1010D00020F870BD7CB500240DE00848055D0326AE
:1010E000002000903346024601460190284600F059
:1010F0005BFF00BF641C042CEFD37CBD38360000BE
:1011000010B5044604F0010008B100F011F804F035
:10111000020008B1FFF7DEFF10BD000010B5044665
:101120000249085D012100F0C3FF10BD3436000004
:101130007CB500240CE00948055D002000900346C2
:10114000012211460190284600F02EFF00BF641CCA
:10115000042CF0D300F004F87CBD0000343600000D
:1011600010B5002403E02046FFF7D8FF641C042CD0
:10117000F9D310BD01460A6892FAA2F000BA70478E
:1011800010B513480068134908601349C87C134917
:101190000968884712481349086000201249C1F8BD
:1011A00010010120086100BF0A48F03800680028DB
:1011B000FAD000200749F03908600548006840F07F
:1011C00004000949C1F800020120486010BD000078
:1011D000780000200012004024030020840000203A
:1011E00006060020041500400010004000200549BC
:1011F000086001208107086000BF024800680028DD
:10120000FBD070470001004013480078062820D129
:101210001148001D007800F00F00D0B90E480830CA
:10122000007800F0F000302801D1012070470A4812
:101230000830007800F0F000402801D10120F5E7E7
:1012400005480830007800F0F000502801D1012056
:10125000ECE70020EAE70000E00F00F01348007818
:10126000062820D11148001D007800F00F00D0B9E9
:101270000E480830007800F0F000302801D101203D
:1012800070470A480830007800F0F000402801D18B
:101290000120F5E705480830007800F0F0005028FC
:1012A00001D10120ECE70020EAE70000E00F00F0A8
:1012B00013480078062820D11148001D007800F05E
:1012C0000F00D0B90E480830007800F0F000302848
:1012D00001D1012070470A480830007800F0F00082
:1012E000402801D10120F5E705480830007800F0DA
:1012F000F000502801D10120ECE70020EAE70000CF
:10130000E00F00F00A48007806280ED10848001DBA
:10131000007800F00F0040B905480830007800F070
:10132000F000302801D1012070470020FCE70000C8
:10133000E00F00F006480068062806D10448001DAA
:101340000068062801D1012070470020FCE700005A
:101350003001001013480078062820D11148001DE4
:10136000007800F00F00D0B90E480830007800F087
:10137000F000302801D1012070470A480830007879
:1013800000F0F000402801D10120F5E705480830C1
:10139000007800F0F000502801D10120ECE7002097
:1013A000EAE70000E00F00F00A48007806280ED1B6
:1013B0000848001D007800F00F0040B905480830CB
:1013C000007800F0F000302801D1012070470020A3
:1013D000FCE70000E00F00F013480078062820D159
:1013E0001148001D007800F00F00D0B90E480830F9
:1013F000007800F0F000302801D1012070470A4841
:101400000830007800F0F000402801D10120F5E715
:1014100005480830007800F0F000502801D1012084
:10142000ECE70020EAE70000E00F00F00A4800784F
:1014300006280ED10848001D007800F00F0040B9C2
:1014400005480830007800F0F000302801D1012074
:1014500070470020FCE70000E00F00F00A48007829
:1014600006280ED10848001D007800F00F0040B992
:1014700005480830007800F0F000302801D1012044
:1014800070470020FCE70000E00F00F00A480078F9
:1014900006280ED10848001D007800F00F0040B962
:1014A00005480830007800F0F000502801D10120F4
:1014B00070470020FCE70000E00F00F010B58AB094
:1014C00026A00068099026A00068089025A103C9FD
:1014D000CDE90601182225496846FEF7ADFE012038
:1014E0008DF800004FF41670ADF80C0001208DF857
:1014F00008001F48019000208DF8010001208DF8A0
:101500001400684600F0D8FA044600BF204608B12F
:101510000AB010BD00BF09A800F0A0FB044600BF40
:10152000204600B1F4E700BF08A800F0D5FB044650
:1015300000BF204600B1EBE700BF082106A800F07D
:101540002BFC044600BF204600B1E1E700BF32207B
:1015500000F080FC04462046DAE70000E4E3E2E124
:10156000C2C2C2C2E5C2C3C4C5C6C7C81C360000D9
:101570002919000070B504460D462A460021204670
:1015800000F00EF8A068401CA06070BD01468A689B
:10159000C868801A704701468A68C868801A704710
:1015A00010B583680B44848823400468E35C13709F
:1015B00010BDC26883881A4003689954C268521CDF
:1015C000C260704770B504460D46E0B2FFF712FCEA
:1015D000204670BD10B501F011FB002009E000EBC2
:1015E000800101EB40110B4A11440B4A42F82010D4
:1015F000401C0828F3DB002009E000EB800101EB30
:101600004011064A1144064A42F82010401C08289E
:10161000F3DB10BD3C030020640400209004002094
:10162000B80500202DE9F04105460E464FF48871BB
:10163000286800F097FD4FF49071286800F092FD43
:101640004FF49271286800F08DFD4FF4A271286864
:1016500000F088FD1C49286800F094FD286800F01F
:10166000A3FD0446374620463946002809DA4A07D2
:101670004FEA126C154A00F00F031B1F02F803C05B
:1016800003E04A07130E124A135400BF00BF286834
:1016900000F08AFD0446204600F01F02012191401F
:1016A0000C4A430942F8231000BF00BF00F01F029C
:1016B000012191404209920002F1E022C2F800119A
:1016C00000BF00BFBDE8F0811003020018ED00E08C
:1016D00000E400E080E200E02DE9F04105460E461E
:1016E0004FF48E71286800F00DFD4FF4A271286848
:1016F00000F008FD1C49286800F013FD286800F080
:1017000057FD0446374620463946002809DA4A077D
:101710004FEA126C154A00F00F031B1F02F803C0BA
:1017200003E04A07130E124A135400BF00BF286893
:1017300000F03EFD0446204600F01F0201219140CA
:101740000C4A430942F8231000BF00BF00F01F02FB
:10175000012191404209920002F1E022C2F80011F9
:1017600000BF00BFBDE8F0818000020018ED00E07E
:1017700000E400E080E200E00120FFF7C1FC01F09E
:1017800047FCFFF733FDFFF799FE044600BF2546EF
:1017900025B100BF2846FFF77FFA00BF00BF00F069
:1017A00099FB02A0FEF7F2FF00BFFEE776697073B7
:1017B0006E207265636569766572206F6B2E0D0A07
:1017C000000000002DE9F04188B004460F461546A0
:1017D00026781A4840F826501949386941F82600F9
:1017E000787F18498855202239466846FEF724FD3F
:1017F00004964FF0000820781249085C50B10DB1F2
:10180000114800E0002002466946201D00F044FE19
:1018100080460EE020780B49085C50B90DB10B48AA
:1018200000E000200246694604F10C0000F0FCFCD8
:101830008046404608B0BDE8F08100000C00002062
:101840001000002014000020ED320000693100007B
:101850002DE9F04104460D461646002720780C4934
:10186000085C30B132462946201D00F055FE07467F
:101870000AE020780649085C30B93246294604F16E
:101880000C0000F015FD07463846BDE8F081000069
:10189000140000202DE9F04104460D4616460027AD
:1018A00020780C49085C30B132462946201D00F0F2
:1018B000CFFE07460AE020780649085C30B9324678
:1018C000294604F10C0000F085FD07463846BDE8C6
:1018D000F08100001400002010B54FF470500C4946
:1018E000086000200B4908700B49087001F086F968
:1018F00020210A48FEF7B9FC094800210160416037
:101900001220FEF72DFD032006490860002010BDBF
:1019100008F501404100002040000020280600207A
:10192000640000200012004070B50546287820B100
:10193000012806D002284DD10BE027A0FEF726FF94
:1019400048E02AA0FEF722FF00F07CF800F016FB2A
:1019500040E02A4800F02CF900283AD128480068D5
:10196000401C274908602548017826A0FEF70EFF95
:1019700028A0FEF70BFF002407E02048401D015D72
:1019800026A0FEF703FF601CC4B21C480078A042EA
:10199000F3DC1A48817823A0FEF7F8FE18480168A6
:1019A00024A0FEF7F3FE26A0FEF7F0FE112000BFF4
:1019B0004FF0A0431946D1F80425012383409343F7
:1019C000C1F80835012383401340C1F80C3500BF2E
:1019D00000BF00BF00BF70BD54582053554343455E
:1019E0005353204556454E5400000000545820469D
:1019F00041494C4544204556454E54008C0000203A
:101A0000000000206C656E677468203D2025303230
:101A10005820200044415441203D200020253032F0
:101A200058000000202052535349203D202D2564AA
:101A3000000000002020434F554E543D20256400F7
:101A40000D0A000010B500BF0948007808B9082049
:101A500010BD00BF0120FEF783FC0020054988620D
:101A6000086248620120FEF787FC0020F0E70000D2
:101A7000400000206404002010B5044600BF0C485C
:101A8000007808B9082010BD00BF00BF0CB90E20B7
:101A9000F9E700BF0120FEF763FC064800682060FC
:101AA0000020044908600120FEF766FC0020EAE7F8
:101AB000400000206000002070B5044600BF0CB953
:101AC0000E2070BD00BF2E48007828B1FFF704FF3C
:101AD00005460DB12846F4E72A49606808601822D7
:101AE00021462948FEF7A8FB00202849086020214C
:101AF0002748FEF7BAFB274800210160416000BF7C
:101B000001F00EFD08B90720DBE700BF4FF0E7301A
:101B1000214908604FF04330091D08601F48091D26
:101B200008601F48091D0860FFF754FD01F010FA16
:101B300001F030F81448407C00F007010120FEF766
:101B400033FC1148807C00F007011220FEF72CFCCA
:101B50001220FEF711FC00201249087001200849EC
:101B600008701148006800F47F40B0F58A4F05D135
:101B70000E48006840F480600C4908600020A0E72F
:101B800040000020480000202403002060000020C6
:101B900028060020640000201C150040E743C323F2
:101BA000A363E31341000020040100103C17004030
:101BB00010B5044600BF2748007808B9082010BDBA
:101BC00000BF00BF0CB90E20F9E700BF2248806AB1
:101BD00008B90520F3E70120FEF7C2FB1E48406A62
:101BE0001D4951F82000007820700846406A51F8DD
:101BF0002000407860700846406A51F820008078E4
:101C0000A0700846406A51F820000079207108460B
:101C1000406A51F82000C078E07022780846406A97
:101C20000B4653F82000411D601DFEF705FB0A48D6
:101C3000406A401C08494862082801D300204862D5
:101C40000548806A401E044988620120FEF794FB23
:101C50000020B4E740000020B805002070B504461D
:101C600000BF1848007808B1112070BD00BF00BF48
:101C70000CB90E20F9E700BF1348006800F47F405C
:101C8000B0F5844F14D11148407C052801D110488B
:101C900001E04FF07F4005462046FEF7C8FF284090
:101CA00028B90C480068C0B208B90720DDE700BFBA
:101CB000064821680160012001F0BAFBFFF7F0F847
:101CC000D3E7000041000020040100104C00002078
:101CD0000000FFFF2415004070B5044600BF2948EE
:101CE000007808B1112070BD00BF00BF0CB90E20F4
:101CF000F9E700BF2448006800F47F40B0F5844F46
:101D000036D12248407C052801D1214801E04FF01E
:101D10007F4005462046FEF78AFF284038BB1D4815
:101D2000006800F47F4000B31A48006800F47F00A8
:101D3000D8B11848006800F07F40B0B11548001DC8
:101D4000006800F07F4080B11248001D006800F478
:101D50007F0050B10F48001D006800F47F4020B1A3
:101D60000C48001D0068C0B208B90720BBE700BFDF
:101D7000064821684160022001F05AFBFFF790F805
:101D8000B1E7000041000020040100104C000020D9
:101D90000000FFFF2415004070B505460C4600BF4B
:101DA0002748007808B1112070BD00BF00BF0DB9F1
:101DB0000E20F9E700BF00BF082C01DD0720F3E784
:101DC00000BF2048006800F47F40B0F5844F22D166
:101DD0001D48407C052801D11C4801E04FF07F40A0
:101DE0000246012C07DB1A480068104018B9287811
:101DF00008B90720D8E71648001D0068104048B908
:101E0000012105E0685C08B90720CDE7481CC1B294
:101E1000A142F7DB00BF224629460B480830FEF7F7
:101E20000BFA09480474C4F10801FF20084106496F
:101E30008874042001F0FCFAFFF732F8B4E70000E0
:101E400041000020040100104C0000200000FFFFB2
:101E50001C150040014600BF0748007808B111205A
:101E6000704700BF00BF642901D90720F8E700BF11
:101E7000024AD1740020F3E7410000204C0000200A
:101E800010B500BF1148007808B9082010BD00BF88
:101E900000BF0F48806A10B94FF48070F6E700BFAA
:101EA0000120FEF75DFA0A48806A401E08498862F0
:101EB0000846406A401C4862082801D30020486256
:101EC0000120FEF759FA0020E0E700004000002062
:101ED0006404002010B500BF1E48007808B111202E
:101EE00010BD00BF4FF0FF301B49086000201B49A8
:101EF000C1F810011A481B4908601B48006840F0EF
:101F000004001A49086010201349091F08600420C2
:101F1000104908701648807C164908601448C07C37
:101F20001449283908601448091F08600120FEF789
:101F30000BFA0120FEF720FA00200C49FC3908605A
:101F4000091D08600949F03908600120034948600B
:101F50000020C5E7410000200813004000100040A9
:101F6000192700007C0000207800002000120040AB
:101F70004C000020301500400606002010B500BFC0
:101F80000748007808B1112010BD00BF0548806ADD
:101F900010B94FF48070F7E700F000FF0020F3E77E
:101FA0004100002064040020F0B5DDE9054500BFD4
:101FB0004FF0A0473E4641EA420747EA830747EA17
:101FC000042747EA054C06F5E06747F820C0F0BD56
:101FD000F0B5DDE9054500BF4FF0A0473E4641EAB8
:101FE000420747EA830747EA042747EA054C06F514
:101FF000E06747F820C0F0BDF0B5DDE9054500BF5A
:102000004FF0A0473E4641EA420747EA830747EAC6
:10201000042747EA054C06F5E06747F820C0F0BD05
:102020007CB505460C46002000902346024601463A
:1020300001902846FFF7CCFF7CBD7CB505460C46D9
:102040000020009023460246014601902846FFF7F3
:10205000D3FF7CBD1CB5044600200090034601223E
:10206000114601902046FFF7B3FF1CBD1CB5044686
:102070000020009003460122114601902046FFF700
:10208000BBFF1CBD00BF4FF0A0410A46012303FA6D
:1020900000F1C2F8081500BF704700BF4FF0A04123
:1020A0000A46012303FA00F1C2F8081500BF704781
:1020B00010B561B900BF00BF4FF0A0421346012424
:1020C00004FA00F2C3F80C2500BF00BF0CE000BF0B
:1020D00000BF4FF0A0421346012404FA00F2C3F8F7
:1020E000082500BF00BF00BF10BD0146D1F8800425
:1020F000C1F8800470470246505808B1012070476B
:102100000020FCE708B5002242504258009200BF70
:1021100008BDC0F80815C0F810257047C0F80813AE
:102120007047C0F8041370470246D2F80403084011
:1021300008B1012070470020FCE70122425070479F
:10214000C0F81425C0F80C1570470146D1F880047A
:10215000C1F8800470470246505808B1012070470A
:102160000020FCE708B5002242504258009200BF10
:1021700008BDC0F808154FF4A2631A507047C0F8A4
:1021800008137047C0F804137047014640F23C50F2
:102190004058704701224250704740F20C5319508A
:1021A00040F214531A5070470146080B40B2704772
:1021B0000146080B40B27047014601F06040B0F1A3
:1021C000005F01D1012070470020FCE72DE9F041BC
:1021D00007460E46384600F005FD0446BCB14FF0F8
:1021E00000080020FEF73CFE207910B14FF00108F6
:1021F00002E02660012020710020FEF736FEB8F1D3
:10220000000F03D011252846BDE8F08100BF00254E
:102210002846F9E710B50249024800F0C1FF10BD99
:10222000D8020020002000402DE9F04105460E466E
:102230001746287900EB400101EBC0001A4901EB79
:1022400080044FF0000894F82A0020B14FF00808ED
:102250004046BDE8F0812A79144B53F822102868D3
:10226000FFF7B4FF18B14FF011084046F1E73146CF
:102270002846FEF7F1FE676030692060606818B19B
:10228000317F2846FFF728FA28680421C0F8001596
:1022900000BF0020A061E06184F829006061012096
:1022A00084F82A004046D4E7D80200207C3600009B
:1022B0002DE9F84F054689469246287900EB400102
:1022C00001EBC000424901EB8004002000906068EF
:1022D00020B14FF401712868FFF720FFA06970B1A9
:1022E000E06950B1606820B14FF401712868FFF7D0
:1022F00018FF11263046BDE8F88F012000900098A5
:1023000038B9C4F818A0C4F80C9000206062E061ED
:1023100003E0C4F81090C4F81CA094F8290020B978
:10232000009810B9284600F0B4FC6068002846D137
:102330004FF4A2712868FFF7E5FE00BF00BF4FF41D
:1023400092712868FFF7D7FE80464FF484712868A1
:10235000FFF7D1FE83464FF4A2712868FFF7CBFE4A
:102360000746BBF1000F03D117B9B8F1000FE6D053
:10237000B8F1000F00D107B107E02146286800F04E
:102380004BFC616AA0698842D8D800BF0020A061D8
:10239000B8F1000F02D003263046ACE717B10F2684
:1023A0003046A8E794F8290020B100212868FFF7FB
:1023B000C4FE03E004212868FFF7BFFE04E04FF4E9
:1023C00001712868FFF7ADFE0026304693E7000054
:1023D000D80200202DE9F04104460F4690462079AE
:1023E00000EB400101EBC0001C4901EB80052046D9
:1023F00000F036F818B111263046BDE8F081C5F876
:102400001480AF600020286285F8280000264FF471
:102410008E712068FFF776FE08212068FFF78DFE99
:102420002946206800F0BFFD6868A0B929462068E9
:1024300000F09EFD08B90F260BE000BF4FF48E712F
:102440002068FFF758FE0028F8D00C212068FFF71D
:1024500074FE002068613046CFE70000D8020020FB
:102460000146087900EB400202EBC000044A02EB8F
:102470008000406908B1012070470020FCE700009F
:10248000D802002010B50249024800F04BFF10BDF1
:10249000B4020020002000402DE9F04105460E4620
:1024A0001746287900EBC000194901EB80044FF072
:1024B000000894F8200020B14FF008084046BDE81D
:1024C000F0812A79134B53F822102868FFF77EFE1B
:1024D00018B14FF011084046F1E731462846FEF7A3
:1024E0007DFD676030692060606818B1317F2846E3
:1024F000FFF798F828680821C0F8001500BF0020F1
:10250000A061E0616061012084F820004046D6E7C8
:10251000B40200204C3600002DE9F84F04460E4668
:102520001746207900EBC000484901EB8005304692
:10253000FFF742FE20B94FF010084046BDE8F88F83
:102540004FF0000A686820B14FF404712068FFF76B
:1025500016FEA86970B1E86950B1686820B14FF4FF
:1025600004712068FFF70EFE4FF011084046E5E7C2
:102570004FF0010ABAF1000F04D1AF61EE60002004
:10258000E86101E02E61EF614FF000084FF48871BF
:102590002068FFF7E7FD4FF4A2712068FFF7E2FD26
:1025A0002068C0F834654FF4A7610F5000BFBAF13E
:1025B000000F04D100212068FFF7ECFD08E0202186
:1025C0002068D0F800220A43C0F8002200BF00BFF4
:1025D000207900EBC0001D4901EB8000406868BB1A
:1025E00000BF4FF488712068FFF7B5FD00904FF4ED
:1025F000A2712068FFF7AFFD83464FF49271206807
:10260000FFF7A9FD8146009828B9BBF1000F02D160
:10261000B9F1000FE5D00020217901EBC1010B4A8F
:1026200002EB81018861B9F1000F01D04FF003087E
:10263000BBF1000F01D04FF00F0804E04FF404711C
:102640002068FFF79FFD404678E70000B4020020B5
:102650002DE9F047044688469146207900EBC000FA
:10266000244901EB80054046FFF7A6FD18B9102666
:102670003046BDE8F087204600F03EF810B1112644
:102680003046F6E7C5F81490C5F8088000264FF4E8
:1026900090712068FFF766FD4FF4AC712068FFF77A
:1026A00061FD20686A69A968C0F844154FF4A96300
:1026B0001A5000BF08212068FFF76CFD6868B0B9A8
:1026C00000BF4FF490712068FFF745FD82464FF43C
:1026D000AC712068FFF73FFD0746BAF1000F01D14A
:1026E000002FEED007B10F260020686100BF3046F2
:1026F000BFE70000B40200200146087900EBC000EB
:10270000044A02EB8000406908B1012070470020B4
:10271000FCE70000B40200202DE9F041002500266E
:1027200001276348006818B9FEF72AFDBDE8F0816B
:102730006048806A082802D3FEF722FDF6E75C486D
:10274000083000685C4901EB800459480C3000688F
:102750002188884207D1A07858494978B0EB610FA9
:1027600001D101260027554840784010A0705048FC
:102770000C30006820805248007D20B14F484078DE
:1027800000F0010000B10125002D7BD04D4800680C
:1027900040F008004C49086049480078002854D0AF
:1027A00001285DD14948806AF0B34848406A4749EA
:1027B00051F8200040783E4908310968884237D1F5
:1027C000E078012814D19EB94048406A401C3F4936
:1027D0004862082801D3002048623C48806A401EB5
:1027E0003A4988623A48006840F001003849086078
:1027F0000120E0703548406A344951F820003549DD
:1028000008600968087834490968884731480068D1
:102810000078324908702F48006802782D48016816
:10282000491D2E48801C00E002E0FDF705FD07E091
:102830000020E0702849096888470020274908706F
:102840001E484078254948700AE00020224909685E
:1028500088471A480078214908700020487000BF56
:1028600000BF05201E4908701148083000681D4946
:1028700008601A481B49283908601B481B49086032
:1028800002E0FFE7FEF77CFC87B1A178084A083236
:102890001268D0B200F00EFA40B10D48006840F066
:1028A00004000B4908601220FDF772FD00BF3DE7F0
:1028B00000140040B805002028060020060600206D
:1028C000240300207800002000120040640400204F
:1028D000600000204400002084000020E405002067
:1028E000410000202C150040F12800007C00002051
:1028F00010B50A48006840F0040009490860094919
:10290000C87C094909688847084809490860094896
:102910000949086004200949087010BD78000020AA
:10292000001200402403002084000020060600203E
:1029300004150040192700007C0000204100002001
:1029400010B5194800681949086019480068194904
:1029500008601948808982381849C1F84405012067
:10296000C8600020C1F840010021154801604FF403
:10297000E050144908604814091D086000201249FD
:10298000C1F80C010C48007818B900200F490968FB
:1029900088470F480F4908600F4810490860032016
:1029A0000F49087010BD00007800002000120040A0
:1029B0007400002040A500402403002000A0004037
:1029C00044A1004004F501400010004084000020B4
:1029D0000606002004150040252A00007C00002087
:1029E0004100002010B50C48006840F001000A4981
:1029F0000860FFF745FA0948806A30B900200849A5
:102A000008701220FDF7C4FC04E01220FDF7C0FCA2
:102A100000F0C4F910BD0000600000206404002034
:102A20004100002010B54FF4E05047490860474886
:102A30000068002843D04648006800283FD00120A5
:102A4000444908614003404908604348006840F039
:102A50000100414908604148C08941490968401A5C
:102A6000401C40490860FFF70BFA3C48007890B1E1
:102A70003D48007800280EDD3B4A527851103B4A11
:102A80001268D0B200F016F928B13348006840F05F
:102A90000400314908603648806A18B12F48007C2C
:102AA000012806D10020334908701220FDF770FC80
:102AB00048E01220FDF76CFC00F070F942E0284974
:102AC0000868411E264A1160B8B9012021490861F1
:102AD00040031D4908602148C089401C2149086005
:102AE0001D48006840F002001B4908600020214991
:102AF00008701220FDF74CFC24E01F48006840F0ED
:102B000008001249F43108601C49096808781C491A
:102B1000096888471B481549283908601A481B4925
:102B2000086002201349087001200A490860400328
:102B30000549091F08600748D0F8440110B1012079
:102B40001349086010BD000008F501400C11004059
:102B50000014004000A0004060000020240300207A
:102B60006C00002070000020060600202C1500409C
:102B70006404002041000020780000204400002070
:102B800084000020E4050020412900007C00002092
:102B9000001000400E490F4801600F49001D016000
:102BA0000B49091D001D01600B491031001D01601A
:102BB0000A49001D01600649F039001D01600749FE
:102BC000091D001D01600649001D016070470000DD
:102BD0000011004060F5014000A0004040A100400D
:102BE0000010004001460348814201D1024870476D
:102BF0000020FCE7002000400400002000200449E1
:102C000008624862886203490862486288627047C5
:102C100064040020B805002070B505460C46A06984
:102C200040B94FF484712846FFF76CFA00BFD5F81D
:102C3000180570BD4FF484712846FFF763FA00BF92
:102C4000D5F81805C0B2626AE1688854606A401C11
:102C5000606200BFEDE77FB504460D4616460120D1
:102C60008DF80000E9B28DF8081001966846D4E9A5
:102C7000001290477FBD7FB504460D4616460120E1
:102C80008DF80000029501966846D4E9001290473D
:102C90007FBD10B504464FF492712068FFF732FAF9
:102CA0004FF484712068FFF72DFA00212068FFF7A8
:102CB00044FA10BD70B504460D463448806A0828B1
:102CC00062D23348007801280ED13248007820289B
:102CD00001DD002070BD2F4800782C49096A2B4A7D
:102CE00052F82110087012E02948407838B90020C5
:102CF0002649096A254A52F82110087007E024483D
:102D0000C07C2249096A214A52F8211008701F49E3
:102D1000096A1E4B53F821100A781946096A53F8BC
:102D20002110481D1B49891CFDF786FA1748006AC7
:102D3000164951F8200044701748006840B2096AEB
:102D4000124A52F8211088701046006A114651F854
:102D5000200005710F48407800F0010080F001006C
:102D6000096A52F82110C8701046006A401C1146CA
:102D70000862082801D3002008620448806A401CC9
:102D8000024988620120A5E70020A3E7B8050020DA
:102D900024030020060600204815004010B501203D
:102DA0005B4908605B48406A5A4951F820005A491B
:102DB00008605A48007810B101287ED12BE05649AE
:102DC00009680878564909688847534800680079B7
:102DD00054490870002048704F48006802784E48F7
:102DE0000168491D4F48801CFDF726FA4E480068CF
:102DF00040F008004D49086011204D49C1F8040316
:102E00004648C0894B4908604B484C49086002203D
:102E10004B49087052E040480068C07810B13F4804
:102E2000007D08B9012000E0002004463A4800680F
:102E300000783C4908703848006800794006000E68
:102E400048700846407834490968C97809B90121B1
:102E500000E000210843334948702F480068027899
:102E60002D480168491D2F48801CFDF7E5F9ACB1DC
:102E70002D48006840F008002C49086011202C49BA
:102E8000C1F804032548C0892A4908602A482B490B
:102E9000086002202A4908700EE00EE0224800680F
:102EA0002249086010202249C1F80403254823491B
:102EB000086001202249087000E000BF00BF1648EA
:102EC0000068407820490860134800684178012074
:102ED00088401D49091D08601C48C07C1A492439D6
:102EE00008601048091F08600120FDF72DFA012035
:102EF000FDF742FA00200D49FC3908600C49C1F881
:102F000008010A49F039086001200949086010BD2C
:102F100070000020640400204400002024030020EE
:102F200084000020E405002078000020001200400A
:102F3000001000406C000020412900007C000020AF
:102F400041000020E52900002C1500404C00002025
:102F5000042005490860002003490839086040F250
:102F6000022002490860704710A5004000A20040FE
:102F700070B505460C4610E004E094F8280008B14E
:102F8000002070BD4FF48E712846FFF7B4F800287A
:102F9000F3D02146284600F006F8206A616988428D
:102FA000EAD30120EDE770B505460C464FF48E716B
:102FB0002846FFF7A7F8216AA068465C206A401CF3
:102FC00020623046C5F81C0500BF70BD7FB50446C1
:102FD0000D4600208DF80000E9B28DF80810A068B9
:102FE0000190002060616846D4E9001290477FBDDF
:102FF0007FB504460D4600208DF800000295A068BC
:103000000190002060616846D4E9001290477FBDBE
:1030100030B58BB01822114905A8FDF70DF900BF96
:103020000F4801904FF4807002900E4803904FF4C7
:103030008070049007230C4A01A905A8FDF76CFED7
:10304000044600BF00BF254625B100BF2846FDF756
:1030500023FE00BF00BF0BB030BD000004360000EF
:10306000B1000020B10100206D30000010B5044611
:103070002078022804D100BF6068FDF70DFE07E04C
:103080002078012804D100BF6068FDF705FE00BF6D
:1030900010BD00007CB504460E46207800283FD0C5
:1030A000012802D002284ED12BE060680178274821
:1030B000FDF721FE054645B101208DF80000019580
:1030C00068462349096888470AE02048FEF75EFA07
:1030D00030B100208DF8000068461D490968884716
:1030E0001A48FEF753FA19498988884205D80122FF
:1030F00018491948FEF7ACFB02E001201749087097
:1031000022E002208DF80000E068019001221149C0
:103110001148FEF79DFB68460D490968884713E092
:103120000F491048FDF7C6FD28B901220C490A488D
:10313000FEF7B0FB06E003208DF800006846044966
:103140000968884700E000BF00BF7CBD0403002081
:1031500030000020350000201C0000203600002038
:1031600034000020140300207FB504460D462E468F
:1031700020788DF8000060680190217A8DF80810A1
:10318000E1680391044850F82610044850F82620BE
:10319000684690477FBD0000100000200C00002012
:1031A0002DE9FF4105460C464FF400712846FEF715
:1031B000BBFF48B34FF492712846FEF79CFF18B34B
:1031C0004FF492712846FEF79DFF4FF40171284697
:1031D000FEF7A4FF94F8290018B904212846FEF749
:1031E000ACFF02208DF800002846FEF77EFF03901A
:1031F000A1690291E06801900020A061E061684649
:10320000D4E90012904737E004212846FEF78CFFEE
:10321000002831D04FF484712846FEF76CFF58B374
:1032200021462846FFF7F8FC616AA069884223D14D
:10323000E06970B1E668676AE069A0612069E060F2
:103240000020E0616062324639462046FFF713FDF8
:1032500012E094F8290018B904212846FEF76DFF02
:103260004FF401712846FEF759FF0020A061E26883
:10327000616A2046FFF7FFFC4FF48E712846FEF787
:103280003AFFB0B1206A6169884207D294F82800F9
:1032900020B921462846FFF786FE0AE04FF48E71DA
:1032A0002846FEF72FFF606918B120466169FFF7D5
:1032B0009FFE4FF4A2712846FEF71DFFA0B14FF408
:1032C000A2712846FEF71EFF94F8290018B10021CC
:1032D0002846FEF732FFA06930B10020A061E26805
:1032E000616A2046FFF7C7FCBDE8FF817FB5044651
:1032F0000D462E4620788DF8000060680190217AF6
:103300008DF80810E1680391044850F8261004482D
:1033100050F82620684690477FBD0000100000202E
:103320000C0000202DE9FF4105460C464FF4927138
:103330002846FEF710FFD8B14FF492712846FEF7E9
:1033400011FF02208DF800002846FEF7FEFE0390D4
:103350002846FEF71AFFC1B28DF80810E068019008
:103360000020A061E0616846D4E9001290472FE098
:103370004FF488712846FEF7EEFE48B34FF488718B
:103380002846FEF7EFFE2846FEF7FFFE0646A06938
:10339000B0421CD1E06998B1E7682020D5F800124E
:1033A0008143C5F8001200BFE069A0612069E060B8
:1033B0000020E0613A4631462046FFF74CFC06E02B
:1033C0000020A06131462046E268FFF744FC00BFC0
:1033D0004FF4A2712846FEF7BEFE88B14FF4A271E9
:1033E0002846FEF7BFFEA06950B10020A061284624
:1033F000FEF7CBFE064631462046E268FFF72BFC7F
:103400004FF490712846FEF7A6FE78B14FF4907104
:103410002846FEF7A7FE606940B100BF40F24C505D
:103420004059064631462046FFF7D0FDBDE8FF81F2
:1034300010B5044604F0010020B11048FDF7F7FB79
:103440000F49086004F0020030B10C48001DFDF780
:10345000EEFB0B49091D086004F0040068B1074841
:103460000830FDF787FE06490831086003480C3034
:10347000FDF780FE02490C31086010BD4C000020B1
:103480001C1500400F48007A0F4908600D48007A6B
:1034900058B1012804D003280BD004280DD100E036
:1034A00000BF30200949086009E049200749086049
:1034B00005E049200549086001E00020704700BF91
:1034C0000120FBE7240300201015004074000020B9
:1034D0001048407A98B1012809D0022810D14FF63F
:1034E000FF700D4908600D48091F08600AE0FF20C1
:1034F0000949086040F20710091F086002E001E076
:103500000020704700BF0348407A0349083908602B
:103510000120F6E7240300203C15004021100100A3
:1035200010B5012400F036F8FFF7ACFF044000F0BE
:1035300017F80440FFF7CCFF04400749C87C07494F
:103540000968884704488089872801DB012000E05A
:1035500000200440204610BD2403002084000020E9
:103560000848007828B1012807D1074807490860B2
:1035700005E007480549086001E00020704700BFEA
:103580000120FBE724030020D9350000840000203F
:10359000A93500000248807A02490860704700009F
:1035A000240300200C1500400849094A116009490C
:1035B000497C491E4FF0807242EA014141EA0021F4
:1035C0000143034A121D1160704700000001010011
:1035D000141500404C0000200749084A11600849B2
:1035E000497C491E4FF0807242EA014141F02001BE
:1035F000024A121D116070470600030014150040B6
:103600004C0000200800000006000000050000003B
:10361000070000000000000000E0D70101000000EA
:103620000000000001020000FA0003000001022077
:1036300000000000111213140D0E0F106E72667848
:103640005F75617274655F696E697400852400003E
:103650006E7266785F75617274655F7478006E7201
:1036600066785F75617274655F7278006E726678F5
:103670005F756172745F696E6974000015220000E5
:103680006E7266785F756172745F7478006E7266D0
:10369000785F756172745F7278000000FFFFFFFF52
:1036A000FFFFFFFFFFFFFFFFFFFFFFFF0000000026
:1036B000000000000000D60106010000DC3600001A
:1036C000000000208C000000AC07000068370000FC
:1036D0008C000020BC250000BC070000000000009A
:1036E00000000000000000000000000000000000DA
:1036F000000000000000000000000000002000406A
:103700000000000000200040000000000000000059
:1037100000000000000000000000000000000000A9
:103720000000000000000000E7E7E7E7C2C2C2C2F5
:10373000E7C2C3C4C5C6C7C80805FF020000000031
:103740000000000000000000000000000000000079
:103750000000000013010000000000000000000055
:08376000000000000090D003FE
:0400000500000201F4
:00000001FF
